:020000040800F2
:1000000000500020A90F0008EF0F0008F10F0008B2
:10001000F30F0008F50F0008F70F000800000000BC
:10002000000000000000000000000000F90F0008C0
:10003000FB0F000800000000FD0F0008FF0F000884
:100040000310000805100008071000080910000838
:100050000B1000080D1000080F1000081110000808
:1000600013100008151000081710000819100008D8
:100070001B1000081D1000081F10000821100008A8
:100080002310000825100008271000082910000878
:100090002B1000082D1000082F1000083110000848
:1000A0003310000835100008371000083910000818
:1000B0003B1000083D1000083F100008C10C00086C
:1000C00043100008451000084710000849100008B8
:1000D0004B1000084D1000084F1000085110000888
:1000E00053100008551000085710000810B5054CB3
:1000F000237833B9044B13B10448AFF300800123D4
:10010000237010BD7C00002000000000BC1200081D
:10011000084B10B51BB108490848AFF300800848E8
:10012000036803B910BD074B002BFBD0BDE810409E
:10013000184700BF0000000080000020BC1200082B
:100140007C00002000000000154B002B08BF134B63
:100150009D46A3F5803A00218B460F461348144A6A
:10016000121A01F039F80F4B002B00D098470E4BB4
:10017000002B00D098470020002104000D000D48FE
:10018000002802D00C48AFF3008000F0FFFF2000F1
:10019000290000F0B1FE00F0E5FF00BF00000800FC
:1001A0000050002000000000000000007C00002043
:1001B0009A0000200000000000000000C3785BB936
:1001C000037801215A09164803F01F03203201FA6F
:1001D00003F340F82230704730B4124B8278D9686C
:1001E0004478C9430F23C1F30221C1F10405CB4078
:1001F000AC401340027823431B0102F16042DBB2A2
:1002000002F5614282F800330378012203F01F00F7
:1002100003495B09824041F8232030BC704700BF8E
:1002200000E100E000ED00E0CB782DE9F04103F0C3
:100230000F06DB0648BF8B780C8848BF1E4314F0BE
:10024000FF0F26D00568002301274FF00F0803E0B9
:100250000133082B1BD00C8807FA03F232EA04049E
:10026000F6D19C0091F803E008FA04FC25EA0C059D
:1002700006FA04F4BEF1280F45EA040538D0BEF1B1
:10028000480F03F1010308BF0261082BE3D10560A9
:100290000C88FF2C2AD94568002301274FF00F0C4A
:1002A00003E00133082B20D00C8803F1080207FA81
:1002B00002F232EA0404F4D191F803E09C00BEF1AA
:1002C000280F04BF426191F803E00CFA04F8BEF174
:1002D000480F03F1010325EA080506FA04F408BFF4
:1002E0000261082B45EA0405DED14560BDE8F081D6
:1002F0004261ADE708B50D4B012198420AD04FF499
:10030000800000F0E1F9BDE8084000214FF48000D2
:1003100000F0DAB94FF4001000F0D6F9BDE808405B
:1003200000214FF4001000F0CFB900BF005400408E
:10033000F0B504460D4687B0868801A800F05AF94A
:10034000314F039B26F03F06A7FB03273604BF0C63
:10035000360CB8B20643A68021882C4E21F001014C
:100360000904090C21802A68B24223D85200B3FB49
:10037000F2F39BB2032B00F1010098BF0423208409
:10038000A38323889BB243F0010323802388A98899
:1003900023F481636A8923F002031B040A431B0CC4
:1003A00013439BB22380AA892B8913439BB22381D9
:1003B00007B0F0BD4BF6FF71E88888421DD002EB14
:1003C000820202EB8202B3FBF2F39BB243F480435E
:1003D000C3F30B020AB943F001034FF4967202FB18
:1003E00007F70B4AF91782FB0702C1EBA212013291
:1003F00092B243F400432284C2E702EB4200B3FB13
:10040000F0F39BB2E4E700BF83DE1B43A08601004C
:10041000D34D6210038829B923F001031B041B0C80
:10042000038070479BB243F001030380704700BF15
:10043000038829B923F480731B041B0C03807047C5
:100440009BB243F480730380704700BF038829B9CF
:1004500023F400731B041B0C038070479BB243F40E
:1004600000730380704700BF038829B923F48063B9
:100470001B041B0C038070479BB243F48063038012
:10048000704700BF83889BB21AB923EA01018180BB
:10049000704719438180704701827047008AC0B25B
:1004A000704700BF22B901F0FE0189B20182704796
:1004B00041F0010189B20182704700BF038829B170
:1004C00023F080031B041B0C038070479BB243F096
:1004D00080030380704700BF838A008B9BB243EA8E
:1004E000004321F07F4203EA0200401AB0FA80F094
:1004F00040097047838A028B98B240EA024020F09C
:100500007F40704782B000230A0F0093019301904F
:100510000092009B21F07F4153B1019B1433019362
:10052000019B1B68194214BF0120002002B07047D4
:10053000019B090C18330193F2E700BF014B1860CF
:10054000704700BF20000E42034A536823F47C1317
:10055000194308435060704700100240014B186077
:10056000704700BF60004242034A536823F0030310
:1005700018435060704700BF00100240034A5368A0
:1005800023F0F00318435060704700BF0010024092
:10059000034A536823F4E06318435060704700BF78
:1005A00000100240034A536823F4605343EAC0003A
:1005B0005060704700100240064B002201281A705C
:1005C0001A7005D0042802D105221A7070477047AE
:1005D0001870704720100240024A136A18431062D4
:1005E000704700BF00100240014B1860704700BF09
:1005F0003C04424230B4214A536803F00C03042BFC
:1006000006D0082B25D01BB11D4A1346026001E01D
:100610001B4B0360194A1B4C51681B4DC1F303115E
:10062000615CCB4043605168C1F30221615C23FAF5
:1006300001F181605168C1F3C221615CCB40C360AC
:100640005268C2F38132AA5C30BCB3FBF2F303619F
:10065000704753685168C3F38343C90303F102032E
:1006600007D55268920304D4054A02FB03F30360E2
:10067000D0E7064A02FB03F30360CBE70010024019
:1006800000127A00040000200000002000093D0054
:1006900029B9054A936923EA000090617047024B2B
:1006A0009A691043986170470010024029B9054AC1
:1006B000D36923EA0000D0617047024BDA69104326
:1006C000D86170470010024029B9054A136923EA2E
:1006D000000010617047024B1A691043186170479F
:1006E000001002404309012B0BD0022B094B00F0F4
:1006F0001F000CBF1B6A5B6A23FA00F000F00100C8
:100700007047044B00F01F001B6823FA00F000F054
:100710000100704700100240034A938B108B9BB27C
:1007200043EA0040704700BF00280040084A010C1F
:10073000938880B29BB243F010039380118390831F
:10074000938823F010031B041B0C9380704700BF99
:1007500000280040084AC0F30341938880B29BB24E
:1007600043F01003938011819081938823F010034C
:100770001B041B0C9380704700280040084A010CA2
:10078000938880B29BB243F01003938011849084CD
:10079000938823F010031B041B0C9380704700BF49
:1007A0000028004005490A468B8823F008031B04F3
:1007B0001B0C8B8093881B07FCD5704700280040DA
:1007C000034B9B88184214BF01200020704700BFD4
:1007D00000280040034A93889BB223EA00009080DF
:1007E000704700BF00280040FFF7F4BF4A8830B4CC
:1007F0000C888B882243CC881A430B8922434C896E
:100800008D891A4322430388CC892A43224303F467
:10081000415313439BB20380838B30BC23F40063AA
:100820001B041B0C83830B8A03827047002307225F
:100830000282038043808380C3800381438183815C
:10084000C3817047038829B923F040031B041B0CA4
:10085000038070479BB243F040030380704700BFA2
:1008600081817047808980B2704700BF0389194237
:1008700014BF01200020704730B504460D46038A9E
:10088000CA889BB223F440531343038282890B89A5
:10089000888892B24989034322F4B0520B4322F074
:1008A0000C0213439BB2A381A38AAA899BB223F4AF
:1008B000407387B01343A38201A8FFF79BFE0499FE
:1008C0001A48039BA289844208BF0B4612F4004FCA
:1008D0002A6803EB830314BF5200920003EB8303E7
:1008E000B3FBF2F3124DA189A5FB0320642240095A
:1008F00000FB12330A044FEA00100AD41A01323204
:10090000A5FB0223C3F3431303439BB2238107B028
:1009100030BDD9003231A5FB0131C1F3421242EAA8
:1009200000039BB2238107B030BD00BF00380140F7
:100930001F85EB5100234FF416510C2201604281B8
:100940008380C38003818381704700BF838929B975
:1009500023F400531B041B0C838170479BB243F4A8
:1009600000538381704700BFC1F308018180704745
:100970000388194214BF01200020704708B50020E9
:10098000FFF7F2FD0020FFF7E9FD4FF480304FF450
:10099000E011FFF7D9FD0120FFF7E0FD3920FFF757
:1009A000A1FE0028FAD00220FFF7DEFD0020FFF7AD
:1009B000E5FD0020FFF7F6FDBDE808404FF480603C
:1009C000FFF7E6BD08B501214FF08050FFF76EFE3E
:1009D0000120FFF7B3FD0120FFF7EEFD4120FFF7F7
:1009E00081FE0028FAD04FF48070FFF7F5FD01205A
:1009F000FFF7FAFDFFF7D6FE2020FFF7E1FE002803
:100A0000FAD047F6FF70FFF7A5FEBDE808400020CA
:100A1000FFF78CBE70B586B002A8184EFFF78AFFAC
:100A20004FF41653012144F2050002930325FFF70A
:100A30002FFE134C304601A94FF400721823ADF875
:100A400004208DF807308DF80650FFF7EDFB4FF4CA
:100A50008062042301A93046ADF804208DF80730E8
:100A60008DF80650FFF7E0FB20460121FFF76EFFEF
:100A700002A92046FFF700FF06B070BD0008014044
:100A80000038014038B504460D4680210D48FFF777
:100A90006FFF0028F9D00D210A48FFF765FF85B1E7
:100AA000013DEDB22544013C80210648FFF760FF7F
:100AB0000028F9D014F8011F0248FFF755FFAC4297
:100AC000F2D138BD00380140024630B5204C85B027
:100AD0002068616801AB03C324891C8052B30024E1
:100AE0001C4D00E01C46A5FB0231C90801EB810347
:100AF000303204A8A2EB43022044631C00F80C2C03
:100B0000DBB20A460029EDD193B19D1E2C1B01AA30
:100B1000013B1519D41880210F48FFF729FF002841
:100B2000F9D014F801190C48FFF71EFFAC42F2D1BE
:100B300005B030BD80210848FFF71AFF0028F9D022
:100B40000548302105B0BDE83040FFF70DBF00BFBC
:100B500004120008CDCCCCCC00380140F0B51E4CBE
:100B600087B02046FFF7C6FB01214FF48000FFF756
:100B70009DFD01210920FFF78BFD4FF44066032204
:100B80001C2301A91548ADF804608DF806208DF8E6
:100B90000730FFF749FB4BF6FF71114B06AD45F8E7
:100BA000103D4FF480624FF480432046ADF80E10A4
:100BB000002719260121ADF81220ADF81430ADF848
:100BC0000C70ADF81060FFF725FC29462046FFF7B2
:100BD000AFFB07B0F0BD00BF00580040000C014063
:100BE000A0860100F0B5334C87B02046FFF782FBAA
:100BF00001214FF40010FFF759FD01210920FFF7F3
:100C000047FDC02603221C2369462B48ADF800602F
:100C10008DF802208DF80330FFF706FB4BF6FF71CD
:100C2000264B06AD242245F8103D00264FF48043A4
:100C300020464FF48067ADF80E100121ADF810206A
:100C4000ADF81430ADF80C60ADF81270FFF7E2FBB0
:100C500029462046FFF76CFB20460121FFF72EFCBA
:100C600001212046FFF700FC012501A81F238DF874
:100C700004308DF805608DF806608DF80750FFF799
:100C80009DFA202301A88DF80430FFF797FA2A4631
:100C900020464FF40071FFF7F5FB2A4639462046FF
:100CA000FFF7F0FB2A4620464FF48071FFF7EAFB7E
:100CB00007B0F0BD00540040000C0140A0860100C8
:100CC00010B5254C2046FFF715FCB0F5806F3ED0DF
:100CD000224B98421AD0102800D010BDA38A9B073F
:100CE00048BF204604D5838A038B838A9C07FAD4A5
:100CF000194A938AD906F0D5938A13889BB243F098
:100D000001031380938ADB06F6D410BD14492046F4
:100D1000FFF7F8FB0128104808BFA38AFFF7BEFBC6
:100D2000104C182120701048FFF7ACFE02210F482C
:100D3000FFF79CFD0028F9D02B210D48FFF7A2FEFC
:100D400021780C480131BDE81040FFF789BDA38A26
:100D5000DBB2A38210BD00BF00540040400002007F
:100D60000400001098000020101200080038004015
:100D70002C1200080030014038B505460C461748D3
:100D80002B21FFF77FFE01211548FFF751FB154985
:100D90001348FFF7A1FB0028F9D02946002210488C
:100DA000FFF780FB10490E48FFF796FB0028F9D0AB
:100DB00021460B48FFF770FB0C490948FFF78CFBF5
:100DC0000028F9D001210648FFF740FB07490448F5
:100DD000FFF782FB0028F9D038BD00BF5812000889
:100DE0000058004001000300820007008400070053
:100DF00030B51B4D87B0012141F20500FFF748FCDB
:100E0000B0242846694603221823ADF800408DF827
:100E100002208DF80330134CFFF706FA6946402292
:100E200004232846ADF800208DF80330FFF7FCF9C5
:100E300001A8FFF7FBFC10254FF482724FF40073FA
:100E400001A92046ADF80620ADF80E30ADF81050DF
:100E5000FFF7CCFC20460121FFF7F4FC07B030BDC2
:100E6000000801400030014030B5012187B01F4D1E
:100E70004FF48040FFF71AFC01210920FFF708FC1E
:100E80004FF480442846694603221823ADF80040F9
:100E90008DF802208DF80330154CFFF7C5F969462F
:100EA0004FF4304204232846ADF800208DF803307B
:100EB000FFF7BAF901A8FFF7B9FC082500224FF4A3
:100EC000007301A92046ADF80620ADF80E30ADF84C
:100ED0001050FFF78BFC01210648FFF7B3FC2046BA
:100EE0000121FFF7AFFC07B030BD00BF000C01408F
:100EF000003800400030014070B5FFF73FFDFFF7BC
:100F000089FDFFF75FFD0120FFF738FC0220FFF7A6
:100F10006BFC2020FFF754FC0028FAD0FFF7FCFB05
:100F20000446FFF765FFFFF79FFFFFF717FEFFF788
:100F300059FE184E0025FFF7EFFB8442FBD0FFF768
:100F4000EBFBE9B204462420FFF716FF012112480B
:100F5000FFF78CFC0028F9D019211048FFF792FD0B
:100F60000D48FFF77FFC022130700D48FFF78AFD26
:100F70000E210C48FFF786FD307801350138FFF768
:100F8000A3FD02210648FFF77DFD02210448FFF77B
:100F900079FDD0E799000020003800408412000855
:100FA000A0120008A41200080649074A074B9A42FB
:100FB000BEBF51F8040B42F8040BF8E70448804721
:100FC00004480047C8120008000000207C000020F0
:100FD00061100008490100081F49204A002301E070
:100FE00041F8043B9142FBD3FFF786FFFEE7FEE7A3
:100FF000FEE7FEE7FEE7FEE7FEE7FEE7FEE7FEE7C9
:10100000FEE7FEE7FEE7FEE7FEE7FEE7FEE7FEE7B8
:10101000FEE7FEE7FEE7FEE7FEE7FEE7FEE7FEE7A8
:10102000FEE7FEE7FEE7FEE7FEE7FEE7FEE7FEE798
:10103000FEE7FEE7FEE7FEE7FEE7FEE7FEE7FEE788
:10104000FEE7FEE7FEE7FEE7FEE7FEE7FEE7FEE778
:10105000FEE7FEE7FEE7FEE77C0000209A000020A6
:1010600030B43C4B3C49186882B040F00100186035
:101070005D6800202940596019684FF41F0421F071
:10108000847121F48031196019681A4621F4802195
:101090001960596821F4FE0159609C60009001902C
:1010A000196841F48031196003E0009BB3F5A06F2B
:1010B00009D0136803F400330193009B01330093BC
:1010C000019B002BF1D0234B1B6813F4003318BF96
:1010D00001230193019B012B06D0204B4FF00062AE
:1010E0009A6002B030BC70471D4A1A4B106819460E
:1010F00040F010001060106820F0030010601068CD
:1011000040F0020010605A685A605A685A605A6883
:1011100042F480625A605A6822F47C125A605A681B
:1011200042F4E8125A601A6842F080721A600B6842
:10113000084A9B01FBD51146536823F00303536013
:10114000536843F0020353604B6803F00C03082B11
:10115000FAD1C2E7001002400000FFF800ED00E005
:101160000020024008B5074B044613B10021AFF33D
:101170000080054B1868836A03B19847204600F049
:1011800033F800BF00000000B81200080E4B70B525
:101190001E460E4C0025E41AA410A54204D056F8B1
:1011A000253098470135F8E700F020F8084B094C46
:1011B0001E46E41AA4100025A54204D056F8253096
:1011C00098470135F8E770BD7400002074000020D6
:1011D000740000207800002003460244934202D0AD
:1011E00003F8011BFAE77047FEE70000F8B500BFFF
:1011F000F8BC08BC9E467047F8B500BFF8BC08BCF8
:101200009E46704730303030303030303030000063
:101210004C6C65676120656C204461746F20616C63
:101220002049324331200D0A00000000536520455B
:101230006E76696120656C204461746F204465732B
:10124000646520656C205350493120616C205350F7
:101250003132200D0A000000536520456E76696129
:1012600020656C204461746F20446573646520655B
:101270006C204932433220616C2049324331200DC9
:101280000A0000004C6C65676120656C2044617445
:101290006F20616C2053503132200D0A0000000095
:1012A0000D0A0000434F4E5441444F525F53504982
:1012B000323A20004300000014000020000000002B
:0812C00088EEFF7F0100000031
:1012C80002040608000000000102030401020304EE
:1012D80006070809000000000000000000000000E8
:1012E80000000000000000000000000000000000F6
:1012F80000000000B4120008000000000000000018
:1013080000000000000000000000000000000000D5
:1013180000000000000000000000000000000000C5
:1013280000000000000000000000000000000000B5
:0C1338000000000011010008ED0000089A
:0400000508000000EF
:00000001FF
