:020000040800F2
:1000000000500020E50900082B0A00082D0A00080E
:100010002F0A0008310A0008330A00080000000017
:10002000000000000000000000000000350A000889
:10003000370A000800000000390A00083B0A0008DF
:100040003F0A0008410A0008430A0008450A000860
:10005000470A0008490A00084B0A00084D0A000830
:100060004F0A0008510A0008530A0008550A000800
:10007000570A0008590A00085B0A00085D0A0008D0
:100080005F0A0008610A0008630A0008650A0008A0
:10009000670A0008690A00086B0A00086D0A000870
:1000A0006F0A0008710A0008730A0008750A000840
:1000B000770A0008790A00087B0A00087D0A000810
:1000C0007F0A0008810A0008830A0008850A0008E0
:1000D000870A0008C50800088B0A00088D0A000876
:1000E0008F0A0008910A0008930A000810B5054C11
:1000F000237833B9044B13B10448AFF300800123D4
:10010000237010BD7C00002000000000480C000897
:10011000084B10B51BB108490848AFF300800848E8
:10012000036803B910BD074B002BFBD0BDE810409E
:10013000184700BF0000000080000020480C0008A5
:100140007C00002000000000154B002B08BF134B63
:100150009D46A3F5803A00218B460F461348144A6A
:10016000121A00F057FD0F4B002B00D098470E4B92
:10017000002B00D098470020002104000D000D48FE
:10018000002802D00C48AFF3008000F01DFD2000D5
:10019000290000F0CBFB00F003FD00BF00000800C9
:1001A0000050002000000000000000007C00002043
:1001B0009A0000200000000000000000C3785BB936
:1001C000037801215A09164803F01F03203201FA6F
:1001D00003F340F82230704730B4124B8278D9686C
:1001E0004478C9430F23C1F30221C1F10405CB4078
:1001F000AC401340027823431B0102F16042DBB2A2
:1002000002F5614282F800330378012203F01F00F7
:1002100003495B09824041F8232030BC704700BF8E
:1002200000E100E000ED00E0CB782DE9F04103F0C3
:100230000F06DB0648BF8B780C8848BF1E4314F0BE
:10024000FF0F26D00568002301274FF00F0803E0B9
:100250000133082B1BD00C8807FA03F232EA04049E
:10026000F6D19C0091F803E008FA04FC25EA0C059D
:1002700006FA04F4BEF1280F45EA040538D0BEF1B1
:10028000480F03F1010308BF0261082BE3D10560A9
:100290000C88FF2C2AD94568002301274FF00F0C4A
:1002A00003E00133082B20D00C8803F1080207FA81
:1002B00002F232EA0404F4D191F803E09C00BEF1AA
:1002C000280F04BF426191F803E00CFA04F8BEF174
:1002D000480F03F1010325EA080506FA04F408BFF4
:1002E0000261082B45EA0405DED14560BDE8F081D6
:1002F0004261ADE70161704741617047014B186091
:10030000704700BF20000E42064B002201281A70E1
:100310001A7005D0042802D105221A707047704760
:100320001870704720100240024A136A1843106286
:10033000704700BF00100240014B1860704700BFBB
:100340003C04424230B4214A536803F00C03042BAE
:1003500006D0082B25D01BB11D4A1346026001E0D0
:100360001B4B0360194A1B4C51681B4DC1F3031111
:10037000615CCB4043605168C1F30221615C23FAA8
:1003800001F181605168C1F3C221615CCB40C3605F
:100390005268C2F38132AA5C30BCB3FBF2F3036152
:1003A000704753685168C3F38343C90303F10203E1
:1003B00007D55268920304D4054A02FB03F3036095
:1003C000D0E7064A02FB03F30360CBE700100240CC
:1003D00000127A00040000200000002000093D0007
:1003E00029B9054A936923EA000090617047024BDE
:1003F0009A691043986170470010024029B9054A74
:10040000D36923EA0000D0617047024BDA691043D8
:10041000D8617047001002404309012B0BD0022B1A
:10042000094B00F01F000CBF1B6A5B6A23FA00F047
:1004300000F001007047044B00F01F001B6823FA16
:1004400000F000F00100704700100240034A938B57
:10045000108B9BB243EA0040704700BF0028004069
:10046000084A010C938880B29BB243F0100393803A
:1004700011839083938823F010031B041B0C93803B
:10048000704700BF00280040084AC0F3034193882A
:1004900080B29BB243F010039380118190819388C6
:1004A00023F010031B041B0C9380704700280040AE
:1004B000084A010C938880B29BB243F010039380EA
:1004C00011849084938823F010031B041B0C9380E9
:1004D000704700BF0028004005490A468B8823F07A
:1004E00008031B041B0C8B8093881B07FCD57047EB
:1004F00000280040034B9B88184214BF01200020B5
:10050000704700BF00280040034A93889BB223EA4B
:1005100000009080704700BF00280040FFF7F4BF44
:1005200030B504460D46038ACA889BB223F4405373
:100530001343038282890B89888892B249890343D5
:1005400022F4B0520B4322F00C0213439BB2A3815E
:10055000A38AAA899BB223F4407387B01343A38272
:1005600001A8FFF7EFFE04991A48039BA289844271
:1005700008BF0B4612F4004F2A6803EB830314BF35
:100580005200920003EB8303B3FBF2F3124DA189F7
:10059000A5FB03206422400900FB12330A044FEA42
:1005A00000100AD41A013232A5FB0223C3F343130D
:1005B00003439BB2238107B030BDD9003231A5FB84
:1005C0000131C1F3421242EA00039BB2238107B01A
:1005D00030BD00BF003801401F85EB5100234FF4B0
:1005E00016510C22016042818380C3800381838184
:1005F000704700BF838929B923F400531B041B0CE7
:10060000838170479BB243F400538381704700BFDE
:1006100010B401F01F04C1F342110123012903FAB0
:1006200004F30FD002290CBF103014302AB902682D
:1006300022EA0303036010BC70470268134303609F
:1006400010BC70470C30F1E7C1F30801818070479E
:100650008088C0F3080070470388194214BF012046
:1006600000207047090A012303FA01F1C94389B246
:100670000180704730B510230C4C83B0184602221D
:100680004FF4005501218DF807308DF80620ADF8A4
:100690000450FFF7A5FE204601A9FFF7C5FD294636
:1006A0002046FFF729FE03B030BD00BF0010014017
:1006B00070B586B000230C2202A84FF400511D4EE5
:1006C0004FF41654ADF80C30ADF81030ADF81430CE
:1006D000ADF812200294ADF80E10FFF77FFF012154
:1006E00044F20500FFF77CFE0325304601A94FF4D4
:1006F00000721823104CADF804208DF807308DF8E7
:100700000650FFF791FD4FF48062042301A93046A3
:10071000ADF804208DF807308DF80650FFF784FD02
:1007200020460121FFF766FF02A92046FFF7F8FEE9
:1007300006B070BD000801400038014030B587B0F8
:100740000023082202A84FF400514FF41654ADF8CC
:100750000C30ADF81030ADF81430ADF81220029422
:10076000ADF80E10FFF73AFF01214FF40030FFF70C
:1007700045FE0E4C042501210520FFF731FE032222
:1007800018230DEB05010A488DF806208DF8073077
:10079000ADF80450FFF748FD20460121FFF72AFF7E
:1007A00002A92046FFF7BCFE07B030BD0044004060
:1007B0000008014030B587B000234FF400520425F3
:1007C00002A84FF41651ADF80C30ADF81030ADF86A
:1007D0001430ADF80E200291ADF81250FFF7FEFE76
:1007E00001214FF48020FFF709FE0E4C0121092062
:1007F000FFF7F6FD4FF4006203230DEB05010A48F5
:10080000ADF804208DF806308DF80750FFF70CFD89
:1008100020460121FFF7EEFE02A92046FFF780FEE9
:1008200007B030BD00480040000C014000B5012277
:1008300083B040F225510A48FFF7EAFE0023252144
:10084000012201A88DF804108DF805308DF80630CE
:100850008DF80720FFF7B2FC03B05DF804FB00BF82
:100860000038014008B51448FFF7F2FEC0B23E2838
:1008700011D03C281FD180210F48FFF7EDFE002842
:10088000F9D00E4B01221A804FF400510C48BDE8FC
:100890000840FFF731BD80210748FFF7DDFE002843
:1008A000F9D0064B00221A804FF400510448BDE8ED
:1008B0000840FFF71FBD08BD003801409800002028
:1008C0000010014008B5FFF7CDFFBDE8084040F239
:1008D00025510148FFF7C6BE0038014008B5012187
:1008E0004FF08050FFF78AFD0120FFF707FD012040
:1008F000FFF70AFD4120FFF78FFD0028FAD04FF4E3
:100900008070FFF711FD0120FFF716FDFFF7E4FDF2
:100910002020FFF7EFFD0028FAD047F6FF70FFF721
:10092000B3FDBDE808400020FFF79ABDF8B5FFF71A
:10093000A1FEFFF7BDFEFFF701FFFFF73BFFFFF74B
:1009400075FFFFF7CBFF0220FFF7B2FD0220FFF794
:10095000E5FD2020FFF7CEFD0028FAD0FFF776FD59
:1009600004461C4F0026FFF771FD001B0128FAD931
:10097000FFF76CFD044680211748FFF76DFE002845
:10098000F9D031461448FFF75FFE20211348FFF7E6
:1009900063FE0028F9D01148FFF75AFE3B88054650
:1009A0008BB9082E01D80135ADB280210C48FFF774
:1009B00053FE0028F9D005F1300189B208482E46CF
:1009C000FFF742FECFE7012BEFD1002EEDD0451E01
:1009D000ADB2EAE798000020004400400048004023
:1009E000003801400649074A074B9A42BEBF51F8FA
:1009F000040B42F8040BF8E704488047044800471A
:100A0000540C0008000000207C0000209D0A000813
:100A1000490100081F49204A002301E041F8043B36
:100A20009142FBD3FFF782FFFEE7FEE7FEE7FEE71A
:100A3000FEE7FEE7FEE7FEE7FEE7FEE7FEE7FEE78E
:100A4000FEE7FEE7FEE7FEE7FEE7FEE7FEE7FEE77E
:100A5000FEE7FEE7FEE7FEE7FEE7FEE7FEE7FEE76E
:100A6000FEE7FEE7FEE7FEE7FEE7FEE7FEE7FEE75E
:100A7000FEE7FEE7FEE7FEE7FEE7FEE7FEE7FEE74E
:100A8000FEE7FEE7FEE7FEE7FEE7FEE7FEE7FEE73E
:100A9000FEE7FEE77C0000209A00002030B43C4BCB
:100AA0003C49186882B040F0010018605D68002081
:100AB0002940596019684FF41F0421F0847121F412
:100AC0008031196019681A4621F48021196059682B
:100AD00021F4FE0159609C6000900190196841F476
:100AE0008031196003E0009BB3F5A06F09D0136853
:100AF00003F400330193009B01330093019B002B0F
:100B0000F1D0234B1B6813F4003318BF012301936A
:100B1000019B012B06D0204B4FF000629A6002B07F
:100B200030BC70471D4A1A4B1068194640F010003F
:100B30001060106820F003001060106840F00200A0
:100B400010605A685A605A685A605A6842F4806263
:100B50005A605A6822F47C125A605A6842F4E812C9
:100B60005A601A6842F080721A600B68084A9B014A
:100B7000FBD51146536823F003035360536843F0D9
:100B8000020353604B6803F00C03082BFAD1C2E751
:100B9000001002400000FFF800ED00E000200240DD
:100BA00008B5074B044613B10021AFF30080054B95
:100BB0001868836A03B19847204600F033F800BFF5
:100BC00000000000440C00080E4B70B51E460E4C91
:100BD0000025E41AA410A54204D056F82530984701
:100BE0000135F8E700F020F8084B094C1E46E41ADE
:100BF000A4100025A54204D056F8253098470135A9
:100C0000F8E770BD7400002074000020740000201C
:100C10007800002003460244934202D003F8011BEF
:100C2000FAE77047FEE70000F8B500BFF8BC08BC63
:100C30009E467047F8B500BFF8BC08BC9E4670479A
:0C0C400043000000140000200000000031
:080C4C00FCF4FF7F0100000031
:100C54000204060800000000010203040102030468
:100C64000607080900000000000000000000000062
:100C74000000000000000000000000000000000070
:100C840000000000400C000800000000000000000C
:100C94000000000000000000000000000000000050
:100CA4000000000000000000000000000000000040
:100CB4000000000000000000000000000000000030
:0C0CC4000000000011010008ED00000815
:0400000508000000EF
:00000001FF
