:020000040800F2
:1000000000500020A1020008E7020008E9020008F1
:10001000EB020008ED020008EF02000800000000FB
:10002000000000000000000000000000F1020008D5
:10003000F302000800000000F5020008F7020008C3
:10004000FB020008FD020008FF020008010300088F
:10005000030300080503000807030008090300085C
:100060000B0300080D0300080F030008110300082C
:1000700013030008150300081703000819030008FC
:100080001B0300081D0300081F03000821030008CC
:10009000230300082503000827030008290300089C
:1000A0002B0300082D0300082F030008310300086C
:1000B000330300083503000837030008390300083C
:1000C0003B0300083D0300083F030008410300080C
:1000D00043030008450300084703000849030008DC
:1000E0004B0300084D0300084F03000810B5054CF2
:1000F000237833B9044B13B10448AFF300800123D4
:10010000237010BD680000200000000004050008F6
:10011000084B10B51BB108490848AFF300800848E8
:10012000036803B910BD074B002BFBD0BDE810409E
:10013000184700BF000000006C0000200405000804
:100140006800002000000000154B002B08BF134B77
:100150009D46A3F5803A00218B460F461348144A6A
:10016000121A00F0B5F90F4B002B00D098470E4B38
:10017000002B00D098470020002104000D000D48FE
:10018000002802D00C48AFF3008000F07BF920007B
:10019000290000F047F800F061F900BF00000800F6
:1001A0000050002000000000000000006800002057
:1001B000840000200000000000000000034A536893
:1001C00023F47C1319430843506070470010024029
:1001D000014B1860704700BF60004242034A5368F9
:1001E00023F0030318435060704700BF0010024023
:1001F00008B50020FFF7F2FF0020FFF7E9FF00211C
:100200004FF44030FFF7DAFF0120FFF7E1FF044A27
:1002100013689B01FCD50220BDE80840FFF7DEBF54
:100220000010024008B541F20000C4F2020040F2A2
:100230001802815841F01001815041F20000C4F2CF
:10024000010040F2040240F20001C0F210018150AE
:1002500040F21002C2F200018150FFF7C9FF0F4BBC
:1002600000BF013BFCD141F20000C4F2010040F2AA
:100270001002C0F2000142F200018150074B00BFA2
:10028000013BFCD141F20000C4F2010040F2100237
:1002900040F20001C2F200018150E0E780841E00BC
:1002A0000649074A074B9A42BEBF51F8040B42F871
:1002B000040BF8E70448804704480047100500088D
:1002C00000000020680000205903000849010008D0
:1002D0001F49204A002301E041F8043B9142FBD32F
:1002E000FFF7A0FFFEE7FEE7FEE7FEE7FEE7FEE71B
:1002F000FEE7FEE7FEE7FEE7FEE7FEE7FEE7FEE7D6
:10030000FEE7FEE7FEE7FEE7FEE7FEE7FEE7FEE7C5
:10031000FEE7FEE7FEE7FEE7FEE7FEE7FEE7FEE7B5
:10032000FEE7FEE7FEE7FEE7FEE7FEE7FEE7FEE7A5
:10033000FEE7FEE7FEE7FEE7FEE7FEE7FEE7FEE795
:10034000FEE7FEE7FEE7FEE7FEE7FEE7FEE7FEE785
:10035000680000208400002030B43C4B3C49186801
:1003600082B040F0010018605D68002029405960AB
:1003700019684FF41F0421F0847121F48031196051
:1003800019681A4621F480211960596821F4FE0188
:1003900059609C6000900190196841F480311960A7
:1003A00003E0009BB3F5A06F09D0136803F400339A
:1003B0000193009B01330093019B002BF1D0234B51
:1003C0001B6813F4003318BF01230193019B012B19
:1003D00006D0204B4FF000629A6002B030BC7047EC
:1003E0001D4A1A4B1068194640F010001060106842
:1003F00020F003001060106840F0020010605A689E
:100400005A605A685A605A6842F480625A605A6860
:1004100022F47C125A605A6842F4E8125A601A6850
:1004200042F080721A600B68084A9B01FBD51146A6
:10043000536823F003035360536843F0020353608F
:100440004B6803F00C03082BFAD1C2E700100240FE
:100450000000FFF800ED00E00020024008B5074B67
:10046000044613B10021AFF30080054B1868836A7E
:1004700003B19847204600F033F800BF00000000A9
:10048000000500080E4B70B51E460E4C0025E41A00
:10049000A410A54204D056F8253098470135F8E756
:1004A00000F020F8084B094C1E46E41AA410002561
:1004B000A54204D056F8253098470135F8E770BDBD
:1004C0006000002060000020600000206400002028
:1004D00003460244934202D003F8011BFAE7704737
:1004E000FEE70000F8B500BFF8BC08BC9E467047A8
:1004F000F8B500BFF8BC08BC9E467047430000003A
:080500000000002000000000D3
:0805080040FCFF7F0100000030
:1005100000000000000000000000000000000000DB
:1005200000000000000000000000000000000000CB
:10053000FC040008000000000000000000000000B3
:1005400000000000000000000000000000000000AB
:10055000000000000000000000000000000000009B
:10056000000000000000000000000000000000008B
:0805700011010008ED00000874
:0400000508000000EF
:00000001FF
