:020000040800F2
:1000000000500020ED0B0008330C0008350C0008F0
:10001000370C0008390C00083B0C000800000000F9
:100020000000000000000000000000003D0C00087F
:100030003F0C000800000000410C0008430C0008C1
:10004000470C0008490C00084B0C00084D0C000838
:100050004F0C0008510C0008530C0008550C000808
:10006000570C0008590C00085B0C00085D0C0008D8
:100070005F0C0008610C0008630C0008650C0008A8
:10008000670C0008690C00086B0C00086D0C000878
:100090006F0C0008710C0008730C0008750C000848
:1000A000770C0008790C00087B0C00087D0C000818
:1000B0007F0C0008810C0008830C0008850C0008E8
:1000C000870C0008890C00088B0C00088D0C0008B8
:1000D0008F0C0008910C0008930C0008950C000888
:1000E000970C0008990C00089B0C000810B5054CF3
:1000F000237833B9044B13B10448AFF300800123D4
:10010000237010BD7C000020000000008C0E000851
:10011000084B10B51BB108490848AFF300800848E8
:10012000036803B910BD074B002BFBD0BDE810409E
:10013000184700BF00000000800000208C0E00085F
:100140007C00002000000000154B002B08BF134B63
:100150009D46A3F5803A00218B460F461348144A6A
:10016000121A00F05BFE0F4B002B00D098470E4B8D
:10017000002B00D098470020002104000D000D48FE
:10018000002802D00C48AFF3008000F021FE2000D0
:10019000290000F0DBFC00F007FE00BF00000800B3
:1001A0000050002000000000000000007C00002043
:1001B00098000020000000000000000042680B686A
:1001C00022F4702230B422F480720C79134343EA93
:1001D000042343608568CC688A68094B22432B401E
:1001E0004C79134343EA440383600A7CC36A013AAF
:1001F000D2B223F4700343EA0253C36230BC7047A7
:10020000FDF7F1FF836819B923F00103836070479C
:1002100043F0010383607047836819B923F4807346
:100220008360704743F4807383607047836843F052
:1002300008038360704700BF8068C0F3C000704748
:10024000836843F004038360704700BF8068C0F395
:1002500080007047836819B923F4A0038360704756
:1002600043F4A00383607047092970B41DD9A1F13C
:100270000A0606EB4606C5680724B440B34025EAE3
:1002800004042343062AC3601BD90C2A27D90D3A3C
:1002900002EB8202C36A1F24944001FA02F223EAAD
:1002A00004010A43C26270BC704701EB4106056954
:1002B0000724B440B34025EA04042343062A03611B
:1002C000E3D8013A02EB8202436B1F24944001FA07
:1002D00002F223EA04010A43426370BC7047073A02
:1002E00002EB8202036B1F24944001FA02F223EA1C
:1002F00004010A43026370BC704700BF4FF6FE72F0
:1003000003683A491A4088424FF0000302600360D4
:1003100043608360C36027D0354B98422AD0354B69
:1003200098422DD0344B984230D0344B984239D03B
:10033000334B98423CD0334B98420FD0324B9842CB
:100340003CD0324B98423FD0314B984242D0314B57
:10035000984245D0304B98421ED070472F4A536880
:1003600043F07063536070472C4A536843F00F03A7
:1003700053607047294A536843F0F0035360704755
:10038000264A536843F4706353607047234A5368A6
:1003900043F4704353607047214A536843F4702319
:1003A0005360DAE71D4A536843F470235360704783
:1003B0001A4A536843F4700353607047184A5368ED
:1003C00043F00F0353607047154A536843F0F0033E
:1003D00053607047124A536843F470635360704728
:1003E0000F4A536843F4704353607047080002405B
:1003F0001C0002403000024044000240580002400D
:100400006C00024080000240080402401C040240CC
:1004100030040240440402405804024000000240FC
:10042000000402400A6A30B48D680B692A434D69A2
:1004300013438A691D43CB6945EA02044D6A026889
:1004400023438C6A1D4322F4FF432C4323F07003A3
:1004500023430360CB6830BC43600B6883604B6808
:10046000C36070470023036043608360C36003611F
:1004700043618361C361036243628362704700BF6B
:1004800029B94FF6FE730268134003607047036892
:1004900043F0010303607047CB782DE9F04103F08E
:1004A0000F06DB0648BF8B780C8848BF1E4314F04C
:1004B000FF0F26D00568002301274FF00F0803E047
:1004C0000133082B1BD00C8807FA03F232EA04042C
:1004D000F6D19C0091F803E008FA04FC25EA0C052B
:1004E00006FA04F4BEF1280F45EA040538D0BEF13F
:1004F000480F03F1010308BF0261082BE3D1056037
:100500000C88FF2C2AD94568002301274FF00F0CD7
:1005100003E00133082B20D00C8803F1080207FA0E
:1005200002F232EA0404F4D191F803E09C00BEF137
:10053000280F04BF426191F803E00CFA04F8BEF101
:10054000480F03F1010325EA080506FA04F408BF81
:100550000261082B45EA0405DED14560BDE8F08163
:100560004261ADE74FF6FF710222042301808270E1
:10057000C3707047034A536823F47C13194308433C
:100580005060704700100240014B1860704700BF78
:1005900060004242034A536823F00303184350604B
:1005A000704700BF00100240034A536823F0F00375
:1005B00018435060704700BF00100240034A536860
:1005C00023F4E06318435060704700BF00100240FE
:1005D000034A536823F4605343EAC00050607047F5
:1005E00000100240034A536823F44043184350600C
:1005F000704700BF0010024030B4214A536803F036
:100600000C03042B06D0082B25D01BB11D4A134622
:10061000026001E01B4B0360194A1B4C51681B4DE3
:10062000C1F30311615CCB4043605168C1F3022107
:10063000615C23FA01F181605168C1F3C221615C00
:10064000CB40C3605268C2F38132AA5C30BCB3FBBA
:10065000F2F30361704753685168C3F38343C903DE
:1006600003F1020307D55268920304D4054A02FB42
:1006700003F30360D0E7064A02FB03F30360CBE712
:100680000010024000127A00040000200000002048
:1006900000093D0029B9054A536923EA0000506169
:1006A0007047024B5A69104358617047001002406E
:1006B00029B9054A936923EA000090617047024B0B
:1006C0009A69104398617047001002404309012B5A
:1006D0000BD0022B094B00F01F000CBF1B6A5B6A9A
:1006E00023FA00F000F001007047044B00F01F00F7
:1006F0001B6823FA00F000F0010070470010024070
:1007000030B504460D46038ACA889BB223F4405391
:100710001343038282890B89888892B249890343F3
:1007200022F4B0520B4322F00C0213439BB2A3817C
:10073000A38AAA899BB223F4407387B01343A38290
:1007400001A8FFF759FF04991A48039BA289844224
:1007500008BF0B4612F4004F2A6803EB830314BF53
:100760005200920003EB8303B3FBF2F3124DA18915
:10077000A5FB03206422400900FB12330A044FEA60
:1007800000100AD41A013232A5FB0223C3F343132B
:1007900003439BB2238107B030BDD9003231A5FBA2
:1007A0000131C1F3421242EA00039BB2238107B038
:1007B00030BD00BF003801401F85EB5100234FF4CE
:1007C00016510C22016042818380C38003818381A2
:1007D000704700BF838929B923F400531B041B0C05
:1007E000838170479BB243F400538381704700BFFD
:1007F000C1F30801818070470388194214BF0120AA
:100800000020704708B50020FFF7C4FE0020FFF766
:10081000BBFE4FF440304FF44011FFF7ABFE012018
:10082000FFF7B2FE3920FFF751FF0028FAD002206F
:10083000FFF7B0FE0020FFF7B7FE0020FFF7C8FE6D
:10084000BDE808404FF48060FFF7B8BE70B5194EA0
:1008500086B0012144F20500FFF72AFF0325304648
:1008600001A94FF400721823ADF804208DF8073069
:10087000114C8DF80650FFF70FFE4FF4806201A96E
:1008800004233046ADF804208DF807308DF806506B
:10089000FFF702FE02A8FFF791FF4FF4165302A9DB
:1008A00020460293FFF72CFF20460121FFF792FF1D
:1008B00006B070BD00080140003801402DE9F0434A
:1008C0000D4687B007464FF48040FFF78BFE0121AD
:1008D0004FF40370FFF7ECFE6846FFF743FE00237A
:1008E0008DF80330002D68D005F1FF387C1E5FFACB
:1008F00088F82646B8444FF0010901E0B04511D010
:1009000016F8013F072BF9D809FA03F30121042057
:10091000ADF80030FFF7CCFE69463048FFF7BCFD6C
:10092000B045EDD1012601E0A04513D014F8013FF8
:10093000083BDAB2012AF7D806FA03F301210820AE
:10094000ADF80030FFF7B4FE69462548FFF7A4FD77
:10095000A045EBD1002401224FF4602301A92148D6
:100960008DF8145001948DF8094004948DF80820F6
:100970000393FFF723FC0134E4B22246072317F860
:10098000011B1848FFF770FCA542F4D81548012157
:10099000FFF738FC1348FFF749FC1248FFF74CFCFF
:1009A0000028FAD10F48FFF74BFC0E48FFF74EFC2A
:1009B0000028FAD107B0BDE8F08301224FF460238C
:1009C00001A9084801958DF8095004958DF8145037
:1009D0008DF808200393FFF7F1FBD7E700080140EB
:1009E000000C01400024014070B504462C4E86B036
:1009F00030687168B268F36801AD0FC5306928606E
:100A0000002C3BD00025274E00E01D46A6FB0432FB
:100A1000D20802EB8201A4EB410106A830316B1C25
:100A200000EB450020F8141C1446DBB2002AECD180
:100A300073B303F10042023A03F10043551B013B3B
:100A400001AA02EB450502EB430480211648FFF79B
:100A5000D3FE0028F9D034F802191348FFF7C8FE76
:100A6000AC42F2D180211048FFF7C6FE80B10E489B
:100A70000A2106B0BDE87040FFF7BABE80210A48DF
:100A8000FFF7BAFE0028F9D030210748FFF7B0FE83
:100A900080210548FFF7B0FE0028F9D0E7E700BF46
:100AA000480E0008CDCCCCCC00380140F0B50E4645
:100AB00005460121164C8DB00846FFF7EBFD204698
:100AC000FFF71CFC01A8FFF7CDFC124A002301A987
:100AD00020460496029501920B934FF48062059391
:100AE0000393202780234FF480564FF4807508929B
:100AF000069309970A960795FFF794FC2046012173
:100B0000FFF7BEFC01210448FFF786FB0DB0F0BDE6
:100B1000080002404C2401400024014091B138B546
:100B20004D1EADB20544441E80210748FFF764FE08
:100B30000028F9D014F8011F0348FFF759FEAC4212
:100B4000F2D138BD704700BF0038014000B587B012
:100B5000FFF758FEFFF77AFE1C4B0421186800903F
:100B60006846FFF7ABFE04210DEB0100FFF79EFF87
:100B700001211748FFF76EFB02211648FFF7CEFF51
:100B800005211548FFF7CAFFBDF80400FFF72CFF49
:100B900005211248FFF7C2FFBDF80600FFF724FF4A
:100BA00005210F48FFF7BAFFBDF80800FFF71CFF4B
:100BB00005210C48FFF7B2FFBDF80A00FFF714FF4C
:100BC000094B00BF013BFCD1D2E700BF5C0E00081F
:100BD00000240140600E0008640E00086C0E00083E
:100BE000740E00087C0E000880841E000649074A27
:100BF000074B9A42BEBF51F8040B42F8040BF8E7CA
:100C00000448804704480047980E00080000002070
:100C10007C000020A50C0008490100081F49204A5B
:100C2000002301E041F8043B9142FBD3FFF78EFF24
:100C3000FEE7FEE7FEE7FEE7FEE7FEE7FEE7FEE78C
:100C4000FEE7FEE7FEE7FEE7FEE7FEE7FEE7FEE77C
:100C5000FEE7FEE7FEE7FEE7FEE7FEE7FEE7FEE76C
:100C6000FEE7FEE7FEE7FEE7FEE7FEE7FEE7FEE75C
:100C7000FEE7FEE7FEE7FEE7FEE7FEE7FEE7FEE74C
:100C8000FEE7FEE7FEE7FEE7FEE7FEE7FEE7FEE73C
:100C9000FEE7FEE7FEE7FEE7FEE7FEE77C0000205A
:100CA0009800002030B43C4B3C49186882B040F0BA
:100CB000010018605D6800202940596019684FF4F0
:100CC0001F0421F0847121F48031196019681A46DB
:100CD00021F480211960596821F4FE0159609C605B
:100CE00000900190196841F48031196003E0009B85
:100CF000B3F5A06F09D0136803F400330193009B90
:100D000001330093019B002BF1D0234B1B6813F49C
:100D1000003318BF01230193019B012B06D0204B08
:100D20004FF000629A6002B030BC70471D4A1A4B07
:100D30001068194640F010001060106820F00300A1
:100D40001060106840F0020010605A685A605A68DB
:100D50005A605A6842F480625A605A6822F47C12DF
:100D60005A605A6842F4E8125A601A6842F0807277
:100D70001A600B68084A9B01FBD51146536823F0A3
:100D800003035360536843F0020353604B6803F05E
:100D90000C03082BFAD1C2E7001002400000FFF854
:100DA00000ED00E00020024008B5074B044613B1F7
:100DB0000021AFF30080054B1868836A03B19847A0
:100DC000204600F033F800BF00000000880E000845
:100DD0000E4B70B51E460E4C0025E41AA410A54219
:100DE00004D056F8253098470135F8E700F020F890
:100DF000084B094C1E46E41AA4100025A54204D055
:100E000056F8253098470135F8E770BD740000208A
:100E10007400002074000020780000200346024483
:100E2000934202D003F8011BFAE77047FEE7000087
:100E3000F8B500BFF8BC08BC9E467047F8B500BFC7
:100E4000F8BC08BC9E4670473000300030003000CF
:100E50003000300030003000300030000001080960
:100E60000A0000004130203D200000004131203DBB
:100E7000200000004133203D200000004134203D8F
:100E800020000000430000001400002000000000CB
:080E9000B8F2FF7F0100000031
:100E98000204060800000000010203040102030422
:100EA800060708090000000000000000000000001C
:100EB800000000000000000000000000000000002A
:100EC80000000000840E0008000000000000000080
:100ED800000000000000000000000000000000000A
:100EE80000000000000000000000000000000000FA
:100EF80000000000000000000000000000000000EA
:0C0F08000000000011010008ED000008CE
:0400000508000000EF
:00000001FF
