:020000040800F2
:100000000050002099040008DF040008E104000803
:10001000E3040008E5040008E7040008000000000D
:10002000000000000000000000000000E9040008DB
:10003000EB04000800000000ED040008EF040008D5
:10004000F3040008F5040008F7040008F9040008A8
:10005000FB040008FD040008FF0400080105000877
:100060000305000805050008070500080905000844
:100070000B0500080D0500080F0500081105000814
:1000800013050008150500081705000819050008E4
:100090001B0500081D0500081F05000821050008B4
:1000A0002305000825050008270500082905000884
:1000B0002B0500082D0500082F0500083105000854
:1000C0003305000835050008370500083905000824
:1000D0003B0500083D0500083F05000841050008F4
:1000E00043050008450500084705000810B5054C04
:1000F000237833B9044B13B10448AFF300800123D4
:10010000237010BD6800002000000000FC060008FD
:10011000084B10B51BB108490848AFF300800848E8
:10012000036803B910BD074B002BFBD0BDE810409E
:10013000184700BF000000006C000020FC0600080B
:100140006800002000000000154B002B08BF134B77
:100150009D46A3F5803A00218B460F461348144A6A
:10016000121A00F0B1FA0F4B002B00D098470E4B3B
:10017000002B00D098470020002104000D000D48FE
:10018000002802D00C48AFF3008000F077FA20007E
:10019000290000F03FF900F05DFA00BF0000080000
:1001A0000050002000000000000000006800002057
:1001B000840000200000000000000000CB782DE942
:1001C000F04103F00F06DB0648BF8B780C8848BF70
:1001D0001E4314F0FF0F26D00568002301274FF0BF
:1001E0000F0803E00133082B1BD00C8807FA03F239
:1001F00032EA0404F6D19C0091F803E008FA04FC0A
:1002000025EA0C0506FA04F4BEF1280F45EA0405B8
:1002100038D0BEF1480F03F1010308BF0261082B7B
:10022000E3D105600C88FF2C2AD9456800230127FB
:100230004FF00F0C03E00133082B20D00C8803F1A2
:10024000080207FA02F232EA0404F4D191F803E05A
:100250009C00BEF1280F04BF426191F803E00CFA44
:1002600004F8BEF1480F03F1010325EA080506FA78
:1002700004F408BF0261082B45EA0405DED145609D
:10028000BDE8F0814261ADE7C368194214BF0120A7
:10029000002070470161704741617047014B186051
:1002A000704700BF20000E42064B002201281A7042
:1002B0001A7005D0042802D105221A7070477047C1
:1002C0001870704720100240024A136A18431062E7
:1002D000704700BF00100240014B1860704700BF1C
:1002E0003C04424229B9054A936923EA000090611F
:1002F0007047024B9A6910439861704700100240A2
:1003000029B9054AD36923EA0000D0617047024B3E
:10031000DA691043D8617047001002404309012B8D
:100320000BD0022B094B00F01F000CBF1B6A5B6A4D
:1003300023FA00F000F001007047044B00F01F00AA
:100340001B6823FA00F000F0010070470010024023
:10035000034A938B108B9BB243EA0040704700BF67
:1003600000280040084A010C938880B29BB243F0F9
:100370001003938011839083938823F010031B0450
:100380001B0C9380704700BF00280040084AC0F350
:100390000341938880B29BB243F010039380118194
:1003A0009081938823F010031B041B0C93807047EB
:1003B0000028004005490A468B8823F008031B04E7
:1003C0001B0C8B8093881B07FCD5704700280040CE
:1003D000034B9B88184214BF01200020704700BFC8
:1003E0000028004010B5022282B010234FF4805440
:1003F000012108208DF806208DF80730ADF8044063
:10040000FFF770FF01A90248FFF7D8FE02B010BD48
:10041000000C014010B5FFF7E5FF01214FF08050BF
:10042000FFF76EFF0120FFF739FF0120FFF73CFFC8
:100430004120FFF773FF0028FAD04FF48070FFF7D8
:1004400043FF0120FFF748FFFFF7B4FF2020FFF72D
:10045000BFFF0028FAD04FF40040FFF797FF0020BD
:10046000FFF780FFFFF774FF4FF4805104460948FF
:10047000FFF70AFF01284FF48051064807D0FFF725
:1004800009FFFFF765FF001B0128FAD9EAE7FFF72C
:1004900003FFF6E7000C01400649074A074B9A4262
:1004A000BEBF51F8040B42F8040BF8E7044880473C
:1004B00004480047080700080000002068000020EA
:1004C00051050008490100081F49204A002301E0A6
:1004D00041F8043B9142FBD3FFF79CFFFEE7FEE7A8
:1004E000FEE7FEE7FEE7FEE7FEE7FEE7FEE7FEE7E4
:1004F000FEE7FEE7FEE7FEE7FEE7FEE7FEE7FEE7D4
:10050000FEE7FEE7FEE7FEE7FEE7FEE7FEE7FEE7C3
:10051000FEE7FEE7FEE7FEE7FEE7FEE7FEE7FEE7B3
:10052000FEE7FEE7FEE7FEE7FEE7FEE7FEE7FEE7A3
:10053000FEE7FEE7FEE7FEE7FEE7FEE7FEE7FEE793
:10054000FEE7FEE7FEE7FEE76800002084000020EB
:1005500030B43C4B3C49186882B040F00100186050
:100560005D6800202940596019684FF41F0421F08C
:10057000847121F48031196019681A4621F48021B0
:100580001960596821F4FE0159609C600090019047
:10059000196841F48031196003E0009BB3F5A06F46
:1005A00009D0136803F400330193009B01330093D7
:1005B000019B002BF1D0234B1B6813F4003318BFB1
:1005C00001230193019B012B06D0204B4FF00062C9
:1005D0009A6002B030BC70471D4A1A4B1068194629
:1005E00040F010001060106820F0030010601068E8
:1005F00040F0020010605A685A605A685A605A689F
:1006000042F480625A605A6822F47C125A605A6836
:1006100042F4E8125A601A6842F080721A600B685D
:10062000084A9B01FBD51146536823F0030353602E
:10063000536843F0020353604B6803F00C03082B2C
:10064000FAD1C2E7001002400000FFF800ED00E020
:100650000020024008B5074B044613B10021AFF358
:100660000080054B1868836A03B19847204600F064
:1006700033F800BF00000000F80600080E4B70B50C
:100680001E460E4C0025E41AA410A54204D056F8CC
:10069000253098470135F8E700F020F8084B094C61
:1006A0001E46E41AA4100025A54204D056F82530B1
:1006B00098470135F8E770BD600000206000002019
:1006C000600000206400002003460244934202D0F0
:1006D00003F8011BFAE77047FEE70000F8B500BF1A
:1006E000F8BC08BC9E467047F8B500BFF8BC08BC13
:1006F0009E467047430000000000002000000000FC
:0807000048FAFF7F0100000030
:1007080000000000000000000000000000000000E1
:1007180000000000000000000000000000000000D1
:10072800F4060008000000000000000000000000BF
:1007380000000000000000000000000000000000B1
:1007480000000000000000000000000000000000A1
:100758000000000000000000000000000000000091
:0807680011010008ED0000087A
:0400000508000000EF
:00000001FF
