:020000040800F2
:100000000050002071050008B7050008B905000878
:10001000BB050008BD050008BF0500080000000082
:10002000000000000000000000000000C105000802
:10003000C305000800000000C5050008C70500084A
:10004000CB050008CD050008CF050008D105000844
:10005000D3050008D5050008D7050008D905000814
:10006000DB050008DD050008DF050008E1050008E4
:10007000E3050008E5050008E7050008E9050008B4
:10008000EB050008ED050008EF050008F105000884
:10009000F3050008F5050008F7050008F905000854
:1000A000FB050008FD050008FF0500080106000823
:1000B00003060008050600080706000809060008F0
:1000C0000B0600080D0600080F06000811060008C0
:1000D0001306000815060008170600081906000890
:1000E0001B0600081D0600081F06000810B5054C79
:1000F000237833B9044B13B10448AFF300800123D4
:10010000237010BD6800002000000000D407000824
:10011000084B10B51BB108490848AFF300800848E8
:10012000036803B910BD074B002BFBD0BDE810409E
:10013000184700BF000000006C000020D407000832
:100140006800002000000000154B002B08BF134B77
:100150009D46A3F5803A00218B460F461348144A6A
:10016000121A00F01DFB0F4B002B00D098470E4BCE
:10017000002B00D098470020002104000D000D48FE
:10018000002802D00C48AFF3008000F0E3FA200012
:10019000290000F083F900F0C9FA00BF0000080050
:1001A0000050002000000000000000006800002057
:1001B000840000200000000000000000CB782DE942
:1001C000F04103F00F06DB0648BF8B780C8848BF70
:1001D0001E4314F0FF0F26D00568002301274FF0BF
:1001E0000F0803E00133082B1BD00C8807FA03F239
:1001F00032EA0404F6D19C0091F803E008FA04FC0A
:1002000025EA0C0506FA04F4BEF1280F45EA0405B8
:1002100038D0BEF1480F03F1010308BF0261082B7B
:10022000E3D105600C88FF2C2AD9456800230127FB
:100230004FF00F0C03E00133082B20D00C8803F1A2
:10024000080207FA02F232EA0404F4D191F803E05A
:100250009C00BEF1280F04BF426191F803E00CFA44
:1002600004F8BEF1480F03F1010325EA080506FA78
:1002700004F408BF0261082B45EA0405DED145609D
:10028000BDE8F0814261ADE74FF6FF710222042321
:1002900001808270C3707047C368194214BF012087
:1002A000002070470161704741617047014B186041
:1002B000704700BF20000E42034A536823F47C13AA
:1002C000194308435060704700100240014B18600A
:1002D000704700BF60004242034A536823F00303A3
:1002E00018435060704700BF00100240064B0022C8
:1002F00001281A701A7005D0042802D105221A703C
:10030000704770471870704720100240024A136A05
:1003100018431062704700BF00100240014B186084
:10032000704700BF3C04424229B9054A936923EA59
:10033000000090617047024B9A69104398617047C2
:100340000010024029B9054AD36923EA0000D061B0
:100350007047024BDA691043D861704700100240C1
:100360004309012B0BD0022B094B00F01F000CBFDF
:100370001B6A5B6A23FA00F000F001007047044B2F
:1003800000F01F001B6823FA00F000F00100704726
:1003900000100240034A938B108B9BB243EA00404B
:1003A000704700BF00280040084A010C938880B2C3
:1003B0009BB243F01003938011839083938823F0C2
:1003C00010031B041B0C9380704700BF00280040E3
:1003D000084AC0F30341938880B29BB243F01003F4
:1003E000938011819081938823F010031B041B0CD0
:1003F0009380704700280040084A010C938880B21F
:100400009BB243F01003938011849084938823F06F
:1004100010031B041B0C9380704700BF0028004092
:1004200005490A468B8823F008031B041B0C8B80AC
:1004300093881B07FCD5704700280040034B9B881E
:10044000184214BF01200020704700BF0028004060
:10045000034A93889BB223EA00009080704700BF54
:1004600000280040FFF7F4BF08B50020FFF734FF75
:100470000020FFF72BFF00214FF44030FFF71CFF57
:100480000120FFF723FF044A13689B01FCD50220DB
:10049000BDE80840FFF720BF0010024030B5012141
:1004A00083B01020FFF740FF01A8FFF7EDFE012405
:1004B00010234FF4005501A92C488DF80730ADF8F2
:1004C00004508DF80640FFF779FE29462748FFF7CC
:1004D000E9FEFFF7C9FF21464FF08050FFF732FFDA
:1004E0002046FFF7E3FE2046FFF700FF4120FFF71D
:1004F00037FF0028FAD04FF48070FFF707FF012084
:10050000FFF70CFFFFF78CFF2020FFF797FF002875
:10051000FAD047F6FF70FFF75BFF0020FFF744FFBC
:100520000220FFF769FF0220FFF79CFF2020FFF762
:1005300085FF0028FAD0FFF72DFF0446FFF72AFFBA
:10054000001B0128FAD9FFF725FF4FF4005104469C
:100550000648FFF7A1FE01284FF40051034802D0DE
:10056000FFF7A0FEEAE7FFF79FFEE7E70010014074
:100570000649074A074B9A42BEBF51F8040B42F89E
:10058000040BF8E70448804704480047E0070008E8
:10059000000000206800002029060008490100082A
:1005A0001F49204A002301E041F8043B9142FBD35C
:1005B000FFF774FFFEE7FEE7FEE7FEE7FEE7FEE774
:1005C000FEE7FEE7FEE7FEE7FEE7FEE7FEE7FEE703
:1005D000FEE7FEE7FEE7FEE7FEE7FEE7FEE7FEE7F3
:1005E000FEE7FEE7FEE7FEE7FEE7FEE7FEE7FEE7E3
:1005F000FEE7FEE7FEE7FEE7FEE7FEE7FEE7FEE7D3
:10060000FEE7FEE7FEE7FEE7FEE7FEE7FEE7FEE7C2
:10061000FEE7FEE7FEE7FEE7FEE7FEE7FEE7FEE7B2
:10062000680000208400002030B43C4B3C4918682E
:1006300082B040F0010018605D68002029405960D8
:1006400019684FF41F0421F0847121F4803119607E
:1006500019681A4621F480211960596821F4FE01B5
:1006600059609C6000900190196841F480311960D4
:1006700003E0009BB3F5A06F09D0136803F40033C7
:100680000193009B01330093019B002BF1D0234B7E
:100690001B6813F4003318BF01230193019B012B46
:1006A00006D0204B4FF000629A6002B030BC704719
:1006B0001D4A1A4B1068194640F01000106010686F
:1006C00020F003001060106840F0020010605A68CB
:1006D0005A605A685A605A6842F480625A605A688E
:1006E00022F47C125A605A6842F4E8125A601A687E
:1006F00042F080721A600B68084A9B01FBD51146D4
:10070000536823F003035360536843F002035360BC
:100710004B6803F00C03082BFAD1C2E7001002402B
:100720000000FFF800ED00E00020024008B5074B94
:10073000044613B10021AFF30080054B1868836AAB
:1007400003B19847204600F033F800BF00000000D6
:10075000D00700080E4B70B51E460E4C0025E41A5B
:10076000A410A54204D056F8253098470135F8E783
:1007700000F020F8084B094C1E46E41AA41000258E
:10078000A54204D056F8253098470135F8E770BDEA
:100790006000002060000020600000206400002055
:1007A00003460244934202D003F8011BFAE7704764
:1007B000FEE70000F8B500BFF8BC08BC9E467047D5
:1007C000F8B500BFF8BC08BC9E4670474300000067
:0807D000000000200000000001
:0807D80070F9FF7F0100000031
:1007E0000000000000000000000000000000000009
:1007F00000000000000000000000000000000000F9
:10080000CC0700080000000000000000000000000D
:1008100000000000000000000000000000000000D8
:1008200000000000000000000000000000000000C8
:1008300000000000000000000000000000000000B8
:0808400011010008ED000008A1
:0400000508000000EF
:00000001FF
