:020000040800F2
:10000000005000205D100008A3100008A510000893
:10001000A7100008A9100008AB100008000000009D
:10002000000000000000000000000000AD1000080B
:10003000AF10000800000000B1100008B310000865
:10004000B7100008B9100008BB100008BD10000868
:10005000BF100008C1100008C3100008C510000838
:10006000C7100008C9100008CB100008CD10000808
:10007000CF100008D1100008D3100008D5100008D8
:10008000D7100008D9100008DB100008DD100008A8
:10009000DF100008E1100008E3100008E510000878
:1000A000E7100008E9100008EB100008ED10000848
:1000B000EF100008F1100008F3100008F510000818
:1000C000F7100008F9100008FB100008FD100008E8
:1000D000FF10000845100008031100080511000872
:1000E00007110008091100080B11000810B5054C94
:1000F000237833B9044B13B10448AFF300800123D4
:10010000237010BD7C000020000000003C1400089B
:10011000084B10B51BB108490848AFF300800848E8
:10012000036803B910BD074B002BFBD0BDE810409E
:10013000184700BF00000000800000203C140008A9
:100140007C00002000000000154B002B08BF134B63
:100150009D46A3F5803A00218B460F461348144A6A
:10016000121A01F093F80F4B002B00D098470E4B5A
:10017000002B00D098470020002104000D000D48FE
:10018000002802D00C48AFF3008001F059F820009D
:10019000290000F035FD01F03FF800BF0000080025
:1001A0000050002000000000000000007C00002043
:1001B000AE0000200000000000000000C3785BB922
:1001C000037801215A09164803F01F03203201FA6F
:1001D00003F340F82230704730B4124B8278D9686C
:1001E0004478C9430F23C1F30221C1F10405CB4078
:1001F000AC401340027823431B0102F16042DBB2A2
:1002000002F5614282F800330378012203F01F00F7
:1002100003495B09824041F8232030BC704700BF8E
:1002200000E100E000ED00E042680B6822F470227B
:1002300030B422F480720C79134343EA0423436000
:100240008568CC688A68094B22432B404C7913435C
:1002500043EA440383600A7CC36A013AD2B223F4BE
:10026000700343EA0253C36230BC7047FDF7F1FFED
:10027000836819B923F001038360704743F00103D9
:1002800083607047836843F008038360704700BF52
:100290008068C0F3C0007047836843F00403836044
:1002A000704700BF8068C0F380007047836819B949
:1002B00023F4A0038360704743F4A0038360704776
:1002C000092970B41DD9A1F10A0606EB4606C568D6
:1002D0000724B440B34025EA04042343062AC3603C
:1002E0001BD90C2A27D90D3A02EB8202C36A1F24BC
:1002F000944001FA02F223EA04010A43C26270BC8C
:10030000704701EB410605690724B440B34025EA74
:1003100004042343062A0361E3D8013A02EB820274
:10032000436B1F24944001FA02F223EA04010A43BA
:10033000426370BC7047073A02EB8202036B1F24D2
:10034000944001FA02F223EA04010A43026370BCFA
:10035000704700BFC06C80B2704700BFCB782DE9FA
:10036000F04103F00F06DB0648BF8B780C8848BFCE
:100370001E4314F0FF0F26D00568002301274FF01D
:100380000F0803E00133082B1BD00C8807FA03F297
:1003900032EA0404F6D19C0091F803E008FA04FC68
:1003A00025EA0C0506FA04F4BEF1280F45EA040517
:1003B00038D0BEF1480F03F1010308BF0261082BDA
:1003C000E3D105600C88FF2C2AD94568002301275A
:1003D0004FF00F0C03E00133082B20D00C8803F101
:1003E000080207FA02F232EA0404F4D191F803E0B9
:1003F0009C00BEF1280F04BF426191F803E00CFAA3
:1004000004F8BEF1480F03F1010325EA080506FAD6
:1004100004F408BF0261082B45EA0405DED14560FB
:10042000BDE8F0814261ADE701617047416170470D
:10043000014B1860704700BF20000E42034A53680A
:1004400023F47C13194308435060704700100240A6
:10045000014B1860704700BF60004242034A536876
:1004600023F0030318435060704700BF00100240A0
:10047000034A536823F0F00318435060704700BFED
:1004800000100240034A536823F4E06318435060AD
:10049000704700BF00100240034A536823F46053C2
:1004A00043EAC0005060704700100240034A53689E
:1004B00023F4404318435060704700BF00100240CF
:1004C000064B002201281A701A7005D0042802D1A8
:1004D00005221A707047704718707047201002404C
:1004E000024A136A18431062704700BF00100240AE
:1004F000014B1860704700BF3C04424230B4214AAF
:10050000536803F00C03042B06D0082B25D01BB135
:100510001D4A1346026001E01B4B0360194A1B4C45
:1005200051681B4DC1F30311615CCB4043605168BE
:10053000C1F30221615C23FA01F181605168C1F3CA
:10054000C221615CCB40C3605268C2F38132AA5CB5
:1005500030BCB3FBF2F30361704753685168C3F3D7
:100560008343C90303F1020307D55268920304D4FD
:10057000054A02FB03F30360D0E7064A02FB03F3DC
:100580000360CBE70010024000127A000400002054
:100590000000002000093D0029B9054A936923EABB
:1005A000000090617047024B9A6910439861704750
:1005B0000010024029B9054AD36923EA0000D0613E
:1005C0007047024BDA691043D8617047001002404F
:1005D0004309012B0BD0022B094B00F01F000CBF6D
:1005E0001B6A5B6A23FA00F000F001007047044BBD
:1005F00000F01F001B6823FA00F000F001007047B4
:1006000000100240034A938B108B9BB243EA0040D8
:10061000704700BF00280040084A010C938880B250
:100620009BB243F01003938011839083938823F04F
:1006300010031B041B0C9380704700BF0028004070
:10064000084AC0F30341938880B29BB243F0100381
:10065000938011819081938823F010031B041B0C5D
:100660009380704700280040084A010C938880B2AC
:100670009BB243F01003938011849084938823F0FD
:1006800010031B041B0C9380704700BF0028004020
:1006900005490A468B8823F008031B041B0C8B803A
:1006A00093881B07FCD5704700280040034B9B88AC
:1006B000184214BF01200020704700BF00280040EE
:1006C000034A93889BB223EA00009080704700BFE2
:1006D00000280040FFF7F4BF30B504460D46038AFA
:1006E000CA889BB223F440531343038282890B8947
:1006F000888892B24989034322F4B0520B4322F016
:100700000C0213439BB2A381A38AAA899BB223F450
:10071000407387B01343A38201A8FFF7EFFE04994B
:100720001A48039BA289844208BF0B4612F4004F6B
:100730002A6803EB830314BF5200920003EB830388
:10074000B3FBF2F3124DA189A5FB032064224009FB
:1007500000FB12330A044FEA00100AD41A013232A5
:10076000A5FB0223C3F3431303439BB2238107B0CA
:1007700030BDD9003231A5FB0131C1F3421242EA4A
:1007800000039BB2238107B030BD00BF0038014099
:100790001F85EB5100234FF416510C22016042815A
:1007A0008380C38003818381704700BF838929B917
:1007B00023F400531B041B0C838170479BB243F44A
:1007C00000538381704700BF10B401F01F04C1F3D0
:1007D00042110123012903FA04F30FD002290CBFAF
:1007E000103014302AB9026822EA0303036010BCF7
:1007F000704702681343036010BC70470C30F1E788
:10080000C1F30801818070478088C0F308007047F9
:100810000388194214BF012000207047090A0123F0
:1008200003FA01F1C94389B20180704708B500207D
:10083000FFF714FE0020FFF70BFE4FF440304FF49B
:100840004011FFF7FBFD0120FFF702FE3920FFF703
:10085000BFFE0028FAD00220FFF700FE0020FFF7BD
:1008600007FE0020FFF718FEBDE808404FF4806047
:10087000FFF708BE30B510230C4C83B01846022297
:100880004FF4005501218DF807308DF80620ADF8A2
:100890000450FFF781FE204601A9FFF75FFD2946BE
:1008A0002046FFF7C1FD03B030BD00BF001001407E
:1008B00030B50C4C83B003221023402501210420C5
:1008C0008DF806208DF80730ADF80450FFF764FE70
:1008D000204601A9FFF742FD29462046FFF7A6FD65
:1008E00003B030BD0008014070B5194E86B001213B
:1008F00044F20500FFF750FE0325304601A94FF4EE
:1009000000721823ADF804208DF80730114C8DF8D3
:100910000650FFF723FD4FF4806201A904233046FF
:10092000ADF804208DF807308DF80650FFF716FD5E
:1009300002A8FFF72FFF4FF4165302A92046029397
:10094000FFF7CAFE20460121FFF730FF06B070BD59
:10095000000801400038014030B5012287B0002373
:1009600005468DF802208DF8033006AC092806D81C
:10097000DFE800F005595E696E73787D824D0121D4
:1009800024F8181D0420FFF707FE21463C48FFF716
:10099000E5FC4FF48040FFF789FD01214FF4007022
:1009A000FFF7FAFD012400234FF4602201A9354826
:1009B00001938DF808308DF80930049303928DF877
:1009C0001440FFF731FC2946224607232D48FFF744
:1009D00077FC2C482146FFF74BFC2A48FFF752FCD6
:1009E0002848FFF755FC0028FAD12648FFF754FCA9
:1009F0002448FFF757FC0028FAD101212148FFF7CE
:100A000037FC01211F48FFF751FC07B030BD02231E
:100A100024F8183D01210820FFF7BEFD21461A48A1
:100A2000FFF79CFCB5E7022324F8183D0121A9E754
:100A3000042024F8180D0121FFF7AEFD21461048CF
:100A4000FFF78CFCA5E7082324F8183D012199E75E
:100A5000102324F8183D012194E7202324F8183DA1
:100A600001218FE7402324F8183D01218AE78023E4
:100A700024F8183D012185E7012124F8181DCAE753
:100A80000008014000240140000C014000B5012293
:100A900083B040F225510A48FFF796FE0023252136
:100AA000012201A88DF804108DF805308DF806306C
:100AB0008DF80720FFF782FB03B05DF804FB00BF51
:100AC0000038014008B501214FF08050FFF772FD5A
:100AD0000120FFF7ADFC0120FFF7F2FC4120FFF7FA
:100AE00077FD0028FAD04FF48070FFF7F9FC012061
:100AF000FFF7FEFCFFF7CCFD2020FFF7D7FD002815
:100B0000FAD047F6FF70FFF79BFDBDE808400020D4
:100B1000FFF782BD91B138B54D1EADB20544441EFC
:100B200080210748FFF774FE0028F9D014F8011F50
:100B30000348FFF765FEAC42F2D138BD704700BFF5
:100B400000380140024630B5284B294DA3FB001365
:100B500085B06968286801ACD21A03C403EB52035C
:100B60002989C3F30F22218072B30024214D00E0B4
:100B70001C46A5FB0231C90801EB8103303204A8F1
:100B8000A2EB43022044631C00F80C2CDBB20A46A3
:100B90000029EDD1B3B19D1E2C1B01AA013B1519F3
:100BA000D41880211448FFF733FE0028F9D014F838
:100BB00001191148FFF724FE02211048FFF7AAFF90
:100BC000AC42EED105B030BD80210B48FFF720FECE
:100BD0000028F9D030210848FFF712FE074802210B
:100BE00005B0BDE83040FFF795BF00BF21011220DE
:100BF000B8120008CDCCCCCC00380140C41200089B
:100C000038B5FFF713FEFFF735FEFFF751FEFFF78C
:100C10006BFE00231B491C4A18460B801380FFF70C
:100C20009BFEFFF733FFFFF74DFF0220FFF71CFD90
:100C30000220FFF74FFD2020FFF738FD0028FAD0F3
:100C4000FFF7E0FC0446114DFFF7DCFC844216D0B0
:100C5000FFF7D8FC044680210D48FFF7D9FD002896
:100C6000F9D014210B48FFF755FF0B48FFF772FB33
:100C70002880FFF767FF01210748FFF717FB00BF38
:100C8000E2E700BFAC000020A8000020AA0000207E
:100C900000380140C812000800240140024630B567
:100CA000204C85B02068616801AB03C324891C8097
:100CB00052B300241C4D00E01C46A5FB0231C908BC
:100CC00001EB8103303204A8A2EB43022044631CF1
:100CD00000F80C2CDBB20A460029EDD193B19D1E21
:100CE0002C1B01AA013B1519D41880210F48FFF7CE
:100CF0008FFD0028F9D014F801190C48FFF780FD8A
:100D0000AC42F2D105B030BD80210848FFF780FD2C
:100D10000028F9D00548302105B0BDE83040FFF784
:100D20006FBD00BFB8120008CDCCCCCC003801405C
:100D3000F8B5AD48FFF768FDAC4DC4B22B88032B66
:100D400065D8412C00F0CF80432C00F0A080422CCD
:100D500040F0B580A64EA74B3288A74DA3FB0213E7
:100D60002988D21A03EB5203A44C1B0A4A1C24F80C
:100D700011302A8080219C48FFF74AFD0028F9D0D5
:100D800004219F48FFF7C6FE23219E48FFF7C2FEBD
:100D90002888FFF783FF02219B48FFF7BBFE9B4893
:100DA0000F21FFF7B7FE3088FFF7CCFE80218E4879
:100DB000FFF72EFD0028F9D013219548FFF7AAFE72
:100DC0002088FFF76BFF6088FFF768FFA088FFF7B8
:100DD00065FFE088FFF762FF04218948FFF79AFE6C
:100DE0002B88854A042B08BF00234FF40051894803
:100DF00008BF1380FFF71AFB874B00BF013BFCD1F4
:100E00004FF400518348BDE8F840FFF70DBB042BB9
:100E10009DD1412C54D0432C99D180217248FFF7A9
:100E2000F7FC0028F9D07D4F04217548FFF772FECA
:100E300017217B48FFF76EFE3888FFF72FFF788871
:100E4000FFF72CFFB888FFF729FFF888FFF726FF88
:100E500002216D48FFF75EFE684B3A88198891427F
:100E600000F0998080216048FFF7D2FC0028F9D07B
:100E70001E216C48FFF74EFE04216148FFF74AFE31
:100E800000233B807B80BB80FB802B80F8BD8021D2
:100E90005548FFF7BDFC0028F9D004215848FFF75A
:100EA00039FE2F216048FFF735FE2888FFF7F6FE50
:100EB00004215348FFF72EFE2B88042BADD0F8BD3C
:100EC00080214948FFF7A4FC0028F9D004214C48B0
:100ED000FFF720FE48215548FFF71CFE0421484833
:100EE000FFF718FEF8BD424E424A31884B4FA2FB35
:100EF0000102891A02EB5102120A591C27F8132029
:100F0000298080213848FFF783FC0028F9D004218C
:100F10003B48FFF7FFFD1C214548FFF7FBFD3088EC
:100F2000FFF710FE12214348FFF7F4FD2888FFF772
:100F3000B5FE02213448FFF7EDFD80212A48FFF776
:100F400067FC0028F9D00D213B48FFF7E3FD388806
:100F5000FFF7A4FE7888FFF7A1FEB888FFF79EFE92
:100F6000F888FFF79BFE04212548FFF7D3FD4FF4D7
:100F700000512848FFF75AFA274B00BF013BFCD12C
:100F80004FF400512348FFF74FFA2B88042B97D0DA
:100F9000032B94D9DBE659887A8891427FF462AFBB
:100FA0009988BA8891427FF45DAFDA88FB889A42CB
:100FB0007FF458AF80210C48FFF72AFC0028F9D0B5
:100FC00011211E48FFF7A6FD04210D48FFF7A2FDE1
:100FD00000233B807B80BB80FB802B804021184816
:100FE000BDE8F840FFF720BA00380140AC0000200F
:100FF000AA00002021011220A8000020A00000204B
:10100000E0120008EC130008C412000810140008D5
:10101000201400080010014080841E009800002069
:10102000A0130008CC130008701300082813000850
:10103000E41200080413000818130008B81300088D
:101040000008014008B5FFF773FEBDE8084040F214
:1010500025510148FFF7E2BB003801400649074A25
:10106000074B9A42BEBF51F8040B42F8040BF8E755
:101070000448804704480047481400080000002046
:101080007C00002015110008490100081F49204A72
:10109000002301E041F8043B9142FBD3FFF7B0FD90
:1010A000FEE7FEE7FEE7FEE7FEE7FEE7FEE7FEE718
:1010B000FEE7FEE7FEE7FEE7FEE7FEE7FEE7FEE708
:1010C000FEE7FEE7FEE7FEE7FEE7FEE7FEE7FEE7F8
:1010D000FEE7FEE7FEE7FEE7FEE7FEE7FEE7FEE7E8
:1010E000FEE7FEE7FEE7FEE7FEE7FEE7FEE7FEE7D8
:1010F000FEE7FEE7FEE7FEE7FEE7FEE7FEE7FEE7C8
:10110000FEE7FEE7FEE7FEE7FEE7FEE77C000020E5
:10111000AE00002030B43C4B3C49186882B040F02F
:10112000010018605D6800202940596019684FF47B
:101130001F0421F0847121F48031196019681A4666
:1011400021F480211960596821F4FE0159609C60E6
:1011500000900190196841F48031196003E0009B10
:10116000B3F5A06F09D0136803F400330193009B1B
:1011700001330093019B002BF1D0234B1B6813F428
:10118000003318BF01230193019B012B06D0204B94
:101190004FF000629A6002B030BC70471D4A1A4B93
:1011A0001068194640F010001060106820F003002D
:1011B0001060106840F0020010605A685A605A6867
:1011C0005A605A6842F480625A605A6822F47C126B
:1011D0005A605A6842F4E8125A601A6842F0807203
:1011E0001A600B68084A9B01FBD51146536823F02F
:1011F00003035360536843F0020353604B6803F0EA
:101200000C03082BFAD1C2E7001002400000FFF8DF
:1012100000ED00E00020024008B5074B044613B182
:101220000021AFF30080054B1868836A03B198472B
:10123000204600F033F800BF00000000381400081A
:101240000E4B70B51E460E4C0025E41AA410A542A4
:1012500004D056F8253098470135F8E700F020F81B
:10126000084B094C1E46E41AA4100025A54204D0E0
:1012700056F8253098470135F8E770BD7400002016
:10128000740000207400002078000020034602440F
:10129000934202D003F8011BFAE77047FEE7000013
:1012A000F8B500BFF8BC08BC9E467047F8B500BF53
:1012B000F8BC08BC9E46704730303030303030309B
:1012C000303000000A00000044696769746F2064D0
:1012D00065206C6120636C6176653A200000000037
:1012E0000A0A0000456C204E756D65726F205365CB
:1012F0006C656363696F6E61646F204675653A2043
:101300000000000050617261206C6120706F736991
:1013100063696F6E3A2000004C6120636C617665F2
:101320002065733A200000004C6F73206469676980
:10133000746F73206465206C6120636C6176652036
:10134000796120657374616E20636F6D706C657474
:101350006F732C2070756C73612043207061726113
:1013600020636F6D70726F62617220212121000015
:1013700041756E206E6F20636F6D706C6574617364
:1013800020747520636C6176652C2076617320650E
:101390006E206C6120706F736963696F6E3A200014
:1013A0004C6120636C61766520646967697461646F
:1013B00061206675653A2000436C6176652065782A
:1013C00069746F73612021212100000046616C6CFB
:1013D000617374652C20696E74656E746120646538
:1013E000206E7565766F20212121000043616D62BA
:1013F0006961737465206C6120636C61766520653A
:101400006E206C6120706F736963696F6E3A2000A3
:10141000506F7220656C206E756D65726F3A20009A
:101420004C61206E7565766120636C617665206520
:10143000733A200043000000140000200000000068
:0814400008EDFF7F0100000030
:10144800020406080000000001020304010203046C
:101458000607080900000000000000000000000066
:101468000000000000000000000000000000000074
:101478000000000034140008000000000000000014
:101488000000000000000000000000000000000054
:101498000000000000000000000000000000000044
:1014A8000000000000000000000000000000000034
:0C14B8000000000011010008ED00000819
:0400000508000000EF
:00000001FF
