:020000040800F2
:100000000010002069020008AF020008B1020008D9
:10001000B3020008B5020008B702000800000000A3
:10002000000000000000000000000000B90200080D
:10003000BB02000800000000BD020008BF0200086B
:10004000C3020008C5020008C7020008C902000870
:10005000CB020008CD020008CF020008D102000840
:10006000D3020008D5020008D7020008D902000810
:10007000DB020008DD020008DF020008E1020008E0
:10008000E3020008E5020008E702000800000000A3
:10009000000000000000000000000000E90200086D
:1000A000EB020008ED020008EF020008F102000870
:1000B000F3020008F502000800000000F702000843
:1000C000F90200080000000000000000FB02000828
:1000D00000000000FD020008FF0200080000000010
:1000E00001030008030300080503000800000000E6
:1000F0000000000000000000000000000000000000
:1001000000000000000000000000000000000000EF
:1001100000000000000000000703000809030008B9
:1001200010B5054C237833B9044B13B10448AFF331
:1001300000800123237010BD680000200000000033
:10014000A0040008084B10B51BB108490848AFF3DC
:1001500000800848036803B910BD074B002BFBD093
:10016000BDE81040184700BF000000006C000020F0
:10017000A00400086800002000000000154B002BC0
:1001800008BF134B9D46A3F5803A00218B460F46CE
:100190001348144A121A00F069F90F4B002B00D0D3
:1001A00098470E4B002B00D09847002000210400F8
:1001B0000D000D48002802D00C48AFF3008000F07D
:1001C0002FF92000290000F013F800F015F900BF06
:1001D00000000800001000200000000000000000E7
:1001E00068000020840000200000000000000000E3
:1001F00041F20000C4F2020040F21802815841F0BE
:100200001001815041F20000C4F2010040F20402EA
:1002100040F20001C0F21001815040F21002C2F21F
:10022000000181500F4B00BF013BFCD141F20000A7
:10023000C4F2010040F21002C0F2000142F20001DB
:100240008150084B00BF013BFCD141F20000C4F2D9
:10025000010040F2100240F20001C2F200018150A0
:10026000E0E700BF80841E000649074A074B9A4218
:10027000BEBF51F8040B42F8040BF8E7044880476E
:1002800004480047AC04000800000020680000207B
:10029000150300087D0100081C491D4A002301E0E8
:1002A00041F8043B9142FBD3FFF7A2FFFEE7FEE7D4
:1002B000FEE7FEE7FEE7FEE7FEE7FEE7FEE7FEE716
:1002C000FEE7FEE7FEE7FEE7FEE7FEE7FEE7FEE706
:1002D000FEE7FEE7FEE7FEE7FEE7FEE7FEE7FEE7F6
:1002E000FEE7FEE7FEE7FEE7FEE7FEE7FEE7FEE7E6
:1002F000FEE7FEE7FEE7FEE7FEE7FEE7FEE7FEE7D6
:10030000FEE7FEE7FEE7FEE7FEE7000068000020EC
:100310008400002030B4354B3549186882B040F075
:10032000010018605D6800202940596019684FF489
:100330001F0421F0847121F48031196019681A4674
:1003400021F480211960596821F4FE0159609C60F4
:10035000D86200900190196841F48031196003E07F
:10036000009BB3F5A06F09D0136803F40033019329
:10037000009B01330093019B002BF1D01B4B1B68AA
:1003800013F4003318BF01230193019B012B06D006
:10039000184B4FF000629A6002B030BC7047134BAC
:1003A00019465A685A605A685A605A685A605A68B8
:1003B00022F47C125A605A6842F498125A601A6801
:1003C00042F080721A600B68084A9B01FBD5114607
:1003D000536823F003035360536843F002035360F0
:1003E0004B6803F00C03082BFAD1D1E70010024050
:1003F0000000FFF800ED00E008B5074B044613B11C
:100400000021AFF30080054B1868836A03B1984759
:10041000204600F033F800BF000000009C040008F4
:100420000E4B70B51E460E4C0025E41AA410A542D2
:1004300004D056F8253098470135F8E700F020F849
:10044000084B094C1E46E41AA4100025A54204D00E
:1004500056F8253098470135F8E770BD6000002058
:100460006000002060000020640000200346024479
:10047000934202D003F8011BFAE77047FEE7000041
:10048000F8B500BFF8BC08BC9E467047F8B500BF81
:10049000F8BC08BC9E4670474300000000000020E6
:0404A0000000000058
:0804A400D8FCFF7F01000000FD
:1004AC000000000000000000000000000000000040
:1004BC000000000000000000000000000000000030
:1004CC00980400080000000000000000000000007C
:1004DC000000000000000000000000000000000010
:1004EC000000000000000000000000000000000000
:1004FC0000000000000000000000000000000000F0
:08050C0045010008210100086F
:0400000508000000EF
:00000001FF
