:020000040800F2
:10000000005000205D090008A3090008A5090008A8
:10001000A7090008A9090008AB09000800000000B2
:10002000000000000000000000000000AD09000812
:10003000AF09000800000000B1090008B30900087A
:10004000B7090008B9090008BB090008BD09000884
:10005000BF090008C1090008C3090008C509000854
:10006000C7090008C9090008CB090008CD09000824
:10007000CF090008D1090008D3090008D5090008F4
:10008000D7090008D9090008DB090008DD090008C4
:10009000DF090008E1090008E3090008E509000894
:1000A000E7090008E9090008EB090008ED09000864
:1000B000EF090008F1090008F3090008F509000834
:1000C000F7090008F9090008FB090008FD09000804
:1000D000FF090008010A0008030A0008050A0008D1
:1000E000070A0008090A00080B0A000810B5054CA9
:1000F000237833B9044B13B10448AFF300800123D4
:10010000237010BD7C00002000000000340C0008AB
:10011000084B10B51BB108490848AFF300800848E8
:10012000036803B910BD074B002BFBD0BDE810409E
:10013000184700BF0000000080000020340C0008B9
:100140007C00002000000000154B002B08BF134B63
:100150009D46A3F5803A00218B460F461348144A6A
:10016000121A00F013FD0F4B002B00D098470E4BD6
:10017000002B00D098470020002104000D000D48FE
:10018000002802D00C48AFF3008000F0D9FC20001A
:10019000290000F067FB00F0BFFC00BF0000080072
:1001A0000050002000000000000000007C00002043
:1001B0009800002000000000000000004FF6FE72D2
:1001C00003683A491A4088424FF000030260036016
:1001D00043608360C36027D0354B98422AD0354BAB
:1001E00098422DD0344B984230D0344B984239D07D
:1001F000334B98423CD0334B98420FD0324B98420D
:100200003CD0324B98423FD0314B984242D0314B98
:10021000984245D0304B98421ED070472F4A5368C1
:1002200043F07063536070472C4A536843F00F03E8
:1002300053607047294A536843F0F0035360704796
:10024000264A536843F4706353607047234A5368E7
:1002500043F4704353607047214A536843F470235A
:100260005360DAE71D4A536843F4702353607047C4
:100270001A4A536843F4700353607047184A53682E
:1002800043F00F0353607047154A536843F0F0037F
:1002900053607047124A536843F470635360704769
:1002A0000F4A536843F4704353607047080002409C
:1002B0001C0002403000024044000240580002404E
:1002C0006C00024080000240080402401C0402400E
:1002D000300402404404024058040240000002403E
:1002E000000402400A6A30B48D680B692A434D69E4
:1002F00013438A691D43CB6945EA02044D6A0268CB
:1003000023438C6A1D4322F4FF432C4323F07003E4
:1003100023430360CB6830BC43600B6883604B6849
:10032000C36070470023036043608360C360036160
:1003300043618361C361036243628362704700BFAC
:1003400029B94FF6FE7302681340036070470368D3
:1003500043F001030360704741607047C3004CBF26
:10036000034B044B1B68034214BF0120002070475D
:100370000004024000000240FFF7F0BFCB782DE9F7
:10038000F04103F00F06DB0648BF8B780C8848BFAE
:100390001E4314F0FF0F26D00568002301274FF0FD
:1003A0000F0803E00133082B1BD00C8807FA03F277
:1003B00032EA0404F6D19C0091F803E008FA04FC48
:1003C00025EA0C0506FA04F4BEF1280F45EA0405F7
:1003D00038D0BEF1480F03F1010308BF0261082BBA
:1003E000E3D105600C88FF2C2AD94568002301273A
:1003F0004FF00F0C03E00133082B20D00C8803F1E1
:10040000080207FA02F232EA0404F4D191F803E098
:100410009C00BEF1280F04BF426191F803E00CFA82
:1004200004F8BEF1480F03F1010325EA080506FAB6
:1004300004F408BF0261082B45EA0405DED14560DB
:10044000BDE8F0814261ADE741617047034A5368FE
:1004500023F47C1319430843506070470010024096
:10046000014B1860704700BF60004242034A536866
:1004700023F0030318435060704700BF0010024090
:10048000034A536823F0F00318435060704700BFDD
:1004900000100240034A536823F4E063184350609D
:1004A000704700BF00100240034A536823F46053B2
:1004B00043EAC000506070470010024030B4214A47
:1004C000536803F00C03042B06D0082B25D01BB176
:1004D0001D4A1346026001E01B4B0360194A1B4C86
:1004E00051681B4DC1F30311615CCB4043605168FF
:1004F000C1F30221615C23FA01F181605168C1F30B
:10050000C221615CCB40C3605268C2F38132AA5CF5
:1005100030BCB3FBF2F30361704753685168C3F317
:100520008343C90303F1020307D55268920304D43D
:10053000054A02FB03F30360D0E7064A02FB03F31C
:100540000360CBE70010024000127A000400002094
:100550000000002000093D0029B9054A536923EA3B
:10056000000050617047024B5A6910435861704750
:100570000010024029B9054A936923EA00009061FE
:100580007047024B9A69104398617047001002400F
:100590004309012B0BD0022B094B00F01F000CBFAD
:1005A0001B6A5B6A23FA00F000F001007047044BFD
:1005B00000F01F001B6823FA00F000F001007047F4
:1005C0000010024030B504460D46038ACA889BB22B
:1005D00023F440531343038282890B89888892B2A3
:1005E0004989034322F4B0520B4322F00C02134317
:1005F0009BB2A381A38AAA899BB223F4407387B0DC
:100600001343A38201A8FFF759FF04991A48039BDB
:10061000A289844208BF0B4612F4004F2A6803EBFC
:10062000830314BF5200920003EB8303B3FBF2F386
:10063000124DA189A5FB03206422400900FB12335F
:100640000A044FEA00100AD41A013232A5FB022331
:10065000C3F3431303439BB2238107B030BDD900DA
:100660003231A5FB0131C1F3421242EA00039BB2D1
:10067000238107B030BD00BF003801401F85EB511A
:1006800000234FF416510C22016042818380C38005
:1006900003818381704700BF838929B923F4005304
:1006A0001B041B0C838170479BB243F4005383816E
:1006B000704700BF838A9BB21AB923EA0101818285
:1006C0007047194381827047C1F3080181807047E8
:1006D0000388194214BF01200020704708B500208C
:1006E000FFF7C4FE0020FFF7BBFE4FF440304FF48D
:1006F000E011FFF7ABFE0120FFF7B2FE3920FFF754
:1007000047FF0028FAD00220FFF7B0FE0020FFF7D5
:10071000B7FE0020FFF7C8FEBDE808404FF4806038
:10072000FFF7B8BE10B5102382B0184602224FF46E
:10073000005401218DF807308DF80620ADF80440F3
:10074000FFF718FF01A90248FFF718FE02B010BD1D
:100750000010014070B5194E86B0012144F2050029
:10076000FFF708FF0325304601A94FF40072182354
:10077000ADF804208DF80730114C8DF80650FFF7C6
:10078000FDFD4FF4806201A904233046ADF804203A
:100790008DF807308DF80650FFF7F0FD02A8FFF73F
:1007A0006FFF4FF4165302A920460293FFF70AFF8A
:1007B00020460121FFF770FF06B070BD0008014020
:1007C00000380140F0B50E4605460121164C8DB0AB
:1007D0000846FFF7C1FE2046FFF7F0FC01A8FFF72F
:1007E000A1FD124A002301A9204602950496802506
:1007F000019210274FF400624FF40076059309939D
:100800000A930B930892039706950796FFF76AFDE4
:10081000294601220648FFF74DFF20460121FFF738
:100820008FFD0DB0F0BD00BF440002400438014010
:100830000038014091B138B54D1EADB20544441E9B
:1008400080210748FFF744FF0028F9D014F8011F62
:100850000348FFF739FFAC42F2D138BD704700BF03
:1008600000380140F0B58BB0FFF738FFFFF75AFFB3
:10087000FFF770FF15213148FFF7DCFF6D466E462C
:1008800030243746346080212D48FFF721FF0028AF
:10089000F9D0398801342A48FFF716FF3A2C06F1BF
:1008A0000406EED101212748FFF7C4FF1521264891
:1008B000FFF7C0FF68460A21FFF784FF4FF400509E
:1008C000FFF75AFD0028F9D001211E48FFF7B2FFBB
:1008D0001E211E48FFF7AEFF39242E462C608021D2
:1008E0001748FFF7F5FE0028F9D03188013C14487D
:1008F000FFF7EAFE2F2C05F10405EED10121114886
:10090000FFF798FF1D211248FFF794FF00211148BF
:10091000FFF716FD0A210F48FFF71EFD01210D48C4
:10092000FFF70EFD4FF40050FFF726FD0028F9D029
:100930004FF400510848FFF787FDFEE7B80B0008A9
:1009400000380140D00B0008D40B0008EC0B000865
:100950000C0C000844000240001001400649074A00
:10096000074B9A42BEBF51F8040B42F8040BF8E75C
:100970000448804704480047400C0008000000205D
:100980007C000020150A0008490100081F49204A80
:10099000002301E041F8043B9142FBD3FFF762FFE3
:1009A000FEE7FEE7FEE7FEE7FEE7FEE7FEE7FEE71F
:1009B000FEE7FEE7FEE7FEE7FEE7FEE7FEE7FEE70F
:1009C000FEE7FEE7FEE7FEE7FEE7FEE7FEE7FEE7FF
:1009D000FEE7FEE7FEE7FEE7FEE7FEE7FEE7FEE7EF
:1009E000FEE7FEE7FEE7FEE7FEE7FEE7FEE7FEE7DF
:1009F000FEE7FEE7FEE7FEE7FEE7FEE7FEE7FEE7CF
:100A0000FEE7FEE7FEE7FEE7FEE7FEE77C000020EC
:100A10009800002030B43C4B3C49186882B040F04C
:100A2000010018605D6800202940596019684FF482
:100A30001F0421F0847121F48031196019681A466D
:100A400021F480211960596821F4FE0159609C60ED
:100A500000900190196841F48031196003E0009B17
:100A6000B3F5A06F09D0136803F400330193009B22
:100A700001330093019B002BF1D0234B1B6813F42F
:100A8000003318BF01230193019B012B06D0204B9B
:100A90004FF000629A6002B030BC70471D4A1A4B9A
:100AA0001068194640F010001060106820F0030034
:100AB0001060106840F0020010605A685A605A686E
:100AC0005A605A6842F480625A605A6822F47C1272
:100AD0005A605A6842F4E8125A601A6842F080720A
:100AE0001A600B68084A9B01FBD51146536823F036
:100AF00003035360536843F0020353604B6803F0F1
:100B00000C03082BFAD1C2E7001002400000FFF8E6
:100B100000ED00E00020024008B5074B044613B189
:100B20000021AFF30080054B1868836A03B1984732
:100B3000204600F033F800BF00000000300C000831
:100B40000E4B70B51E460E4C0025E41AA410A542AB
:100B500004D056F8253098470135F8E700F020F822
:100B6000084B094C1E46E41AA4100025A54204D0E7
:100B700056F8253098470135F8E770BD740000201D
:100B80007400002074000020780000200346024416
:100B9000934202D003F8011BFAE77047FEE700001A
:100BA000F8B500BFF8BC08BC9E467047F8B500BF5A
:100BB000F8BC08BC9E4670474C6C656E616D6F73E7
:100BC000206C61206D656D6F7269613A20000000D4
:100BD0000A0000004461746F73206465206C61201A
:100BE0006D656D6F7269613A200000004C6C656E36
:100BF000616D6F73206465206E7565766F206C6122
:100C0000206D656D6F7269613A2000004E756576E2
:100C10006F73206461746F73206465206C61206D54
:100C2000656D6F7269613A200000000043000000AA
:080C3000140000200000000088
:080C380010F5FF7F0100000030
:100C4000020406080000000001020304010203047C
:100C50000607080900000000000000000000000076
:100C60000000000000000000000000000000000084
:100C7000000000002C0C0008000000000000000034
:100C80000000000000000000000000000000000064
:100C90000000000000000000000000000000000054
:100CA0000000000000000000000000000000000044
:0C0CB0000000000011010008ED00000829
:0400000508000000EF
:00000001FF
