:020000040800F2
:1000000000500020290B00086F0B0008710B00083E
:10001000730B0008750B0008770B00080000000048
:10002000000000000000000000000000790B000844
:100030007B0B0008000000007D0B00087F0B000810
:10004000830B0008850B0008870B0008890B00084C
:100050008B0B00088D0B00088F0B0008910B00081C
:10006000930B0008950B0008970B0008990B0008EC
:100070009B0B00089D0B0008010B0008A10B00085A
:10008000A30B0008A50B0008A70B0008A90B00088C
:10009000AB0B0008AD0B0008AF0B0008B10B00085C
:1000A000B30B0008B50B0008B70B0008B90B00082C
:1000B000BB0B0008BD0B0008BF0B0008C10B0008FC
:1000C000C30B0008C50B0008C70B0008C90B0008CC
:1000D000CB0B0008CD0B0008CF0B0008D10B00089C
:1000E000D30B0008D50B0008D70B000810B5054C42
:1000F000237833B9044B13B10448AFF300800123D4
:10010000237010BD7C000020000000003C0E0008A1
:10011000084B10B51BB108490848AFF300800848E8
:10012000036803B910BD074B002BFBD0BDE810409E
:10013000184700BF00000000800000203C0E0008AF
:100140007C00002000000000154B002B08BF134B63
:100150009D46A3F5803A00218B460F461348144A6A
:10016000121A00F0F9FD0F4B002B00D098470E4BF0
:10017000002B00D098470020002104000D000D48FE
:10018000002802D00C48AFF3008000F0BFFD200033
:10019000290000F009FC00F0A5FD00BF00000800E8
:1001A0000050002000000000000000007C00002043
:1001B000980000200000000000000000C3785BB938
:1001C000037801215A09164803F01F03203201FA6F
:1001D00003F340F82230704730B4124B8278D9686C
:1001E0004478C9430F23C1F30221C1F10405CB4078
:1001F000AC401340027823431B0102F16042DBB2A2
:1002000002F5614282F800330378012203F01F00F7
:1002100003495B09824041F8232030BC704700BF8E
:1002200000E100E000ED00E04FF6FE7203683A499D
:100230001A4088424FF0000302600360436083600D
:10024000C36027D0354B98422AD0354B98422DD0E9
:10025000344B984230D0344B984239D0334B98428B
:100260003CD0334B98420FD0324B98423CD0324B6B
:1002700098423FD0314B984242D0314B984245D0C2
:10028000304B98421ED070472F4A536843F070633A
:10029000536070472C4A536843F00F035360704714
:1002A000294A536843F0F00353607047264A536865
:1002B00043F4706353607047234A536843F47043B8
:1002C00053607047214A536843F470235360DAE760
:1002D0001D4A536843F47023536070471A4A5368A9
:1002E00043F4700353607047184A536843F00F0398
:1002F00053607047154A536843F0F00353607047EA
:10030000124A536843F47063536070470F4A53684E
:1003100043F4704353607047080002401C000240E1
:100320003000024044000240580002406C0002408D
:1003300080000240080402401C04024030040240D5
:1003400044040240580402400000024000040240FD
:100350000A6A30B48D680B692A434D6913438A6970
:100360001D43CB6945EA02044D6A026823438C6A47
:100370001D4322F4FF432C4323F070032343036007
:10038000CB6830BC43600B6883604B68C3607047C8
:100390000023036043608360C36003614361836142
:1003A000C361036243628362704700BF29B94FF69D
:1003B000FE730268134003607047036843F0010353
:1003C0000360704703681AB923EA010101607047AE
:1003D00019430160704700BF41607047C3004CBFC4
:1003E000034B044B1B68034214BF012000207047DD
:1003F0000004024000000240FFF7F0BFC3004CBF02
:10040000014B024B5860704700040240000002405C
:10041000FFF7F4BFCB782DE9F04103F00F06DB06C0
:1004200048BF8B780C8848BF1E4314F0FF0F26D0BE
:100430000568002301274FF00F0803E00133082B64
:100440001BD00C8807FA03F232EA0404F6D19C00B0
:1004500091F803E008FA04FC25EA0C0506FA04F416
:10046000BEF1280F45EA040538D0BEF1480F03F16C
:10047000010308BF0261082BE3D105600C88FF2C43
:100480002AD94568002301274FF00F0C03E0013300
:10049000082B20D00C8803F1080207FA02F232EA96
:1004A0000404F4D191F803E09C00BEF1280F04BFCE
:1004B000426191F803E00CFA04F8BEF1480F03F131
:1004C000010325EA080506FA04F408BF0261082BB7
:1004D00045EA0405DED14560BDE8F0814261ADE743
:1004E00001617047034A536823F47C13194308439E
:1004F0005060704700100240014B1860704700BF09
:1005000060004242034A536823F0030318435060DB
:10051000704700BF00100240034A536823F0F00305
:1005200018435060704700BF00100240034A5368F0
:1005300023F4E06318435060704700BF001002408E
:10054000034A536823F4605343EAC0005060704785
:100550000010024030B4214A536803F00C03042B0E
:1005600006D0082B25D01BB11D4A1346026001E0BE
:100570001B4B0360194A1B4C51681B4DC1F30311FF
:10058000615CCB4043605168C1F30221615C23FA96
:1005900001F181605168C1F3C221615CCB40C3604D
:1005A0005268C2F38132AA5C30BCB3FBF2F3036140
:1005B000704753685168C3F38343C90303F10203CF
:1005C00007D55268920304D4054A02FB03F3036083
:1005D000D0E7064A02FB03F30360CBE700100240BA
:1005E00000127A00040000200000002000093D00F5
:1005F00029B9054A536923EA000050617047024B4C
:100600005A691043586170470010024029B9054AE1
:10061000936923EA000090617047024B9A69104386
:1006200098617047001002404309012B0BD0022B48
:10063000094B00F01F000CBF1B6A5B6A23FA00F035
:1006400000F001007047044B00F01F001B6823FA04
:1006500000F000F0010070470010024030B5044681
:100660000D46038ACA889BB223F440531343038286
:1006700082890B89888892B24989034322F4B05257
:100680000B4322F00C0213439BB2A381A38AAA89D5
:100690009BB223F4407387B01343A38201A8FFF7F2
:1006A00059FF04991A48039BA289844208BF0B464C
:1006B00012F4004F2A6803EB830314BF5200920028
:1006C00003EB8303B3FBF2F3124DA189A5FB0320D7
:1006D0006422400900FB12330A044FEA00100AD4D6
:1006E0001A013232A5FB0223C3F3431303439BB227
:1006F000238107B030BDD9003231A5FB0131C1F3F0
:10070000421242EA00039BB2238107B030BD00BF12
:10071000003801401F85EB5100234FF416510C2285
:10072000016042818380C38003818381704700BF61
:10073000838929B923F400531B041B0C8381704760
:100740009BB243F400538381704700BF838A9BB2FE
:100750001AB923EA010181827047194381827047E7
:10076000C1F30801818070470388194214BF01203A
:100770000020704708B50020FFF7C4FE0020FFF7F7
:10078000BBFE4FF440300021FFF7ACFE0120FFF725
:10079000B3FE3920FFF748FF0028FAD00220FFF708
:1007A000B1FE0020FFF7B8FE0020FFF7C9FEBDE84C
:1007B00008404FF48060FFF7B9BE00BF10B51023AA
:1007C00082B0184602224FF4005401218DF8073000
:1007D0008DF80620ADF80440FFF718FF01A9024884
:1007E000FFF718FE02B010BD00100140F0B587B051
:1007F00006AC4FF4165344F8103D2046164FFFF751
:100800008BFF012144F20500FFF700FF0326384665
:1008100001A94FF400721823104DADF804208DF893
:1008200007308DF80660FFF7F5FD4FF48062042372
:1008300001A93846ADF804208DF807308DF8066020
:10084000FFF7E8FD28460121FFF772FF2146284601
:10085000FFF704FF07B0F0BD000801400038014079
:1008600091B138B54D1EADB20544441E80210748F4
:10087000FFF77AFF0028F9D014F8011F0348FFF7AB
:100880006FFFAC42F2D138BD704700BF0038014065
:10089000F0B50E4605460121164C8DB00846FFF70F
:1008A000A7FE2046FFF7C0FC01A8FFF771FD124A22
:1008B000002301A920460295049680250192102765
:1008C0004FF400624FF40076059309930A930B935B
:1008D0000892039706950796FFF73AFD29460122ED
:1008E0000648FFF733FF20460121FFF75FFD0DB0FB
:1008F000F0BD00BF44000240043801400038014010
:100900002DE9F04105468846174C01218CB0084678
:10091000FFF76EFE2046FFF787FC144F01A8FFF794
:1009200037FD8026002301A9204602954FF400627E
:100930004FF400750393059309930A930B93089260
:10094000CDF81080019706960795FFF701FD01226B
:1009500040210748FFF7FAFE20460121FFF726FD58
:100960000CB0BDE8F08100BF5800024004380140DF
:100970000038014000B5012283B002210948FFF789
:1009800021FD00230E21012201A88DF804108DF80D
:1009900005308DF806308DF80720FFF70FFC03B007
:1009A0005DF804FB4400024070B58AB06C464B4DC4
:1009B000FFF7E0FEFFF702FFFFF718FF1521484899
:1009C000FFF74EFF0FCD0FC40FCD0FC495E8030006
:1009D00084E8030068460A21FFF75AFF4FF40050ED
:1009E000FFF716FD4FF40050FFF706FD0028F9D081
:1009F00001213C48FFF734FF26213B48FFF730FF39
:100A00006D4639242E462C6080213848FFF7ACFE15
:100A10000028F9D03188013C3448FFF7A1FE2F2C83
:100A200005F10405EED101212E48FFF719FF1D2124
:100A30002F48FFF715FF00212E48FFF7B7FC0A21CA
:100A40002C48FFF7C9FC2B480121FFF7AFFC4FF4FE
:100A50000050FFF7DDFC4FF40050FFF7CDFC0028FD
:100A6000F9D000212348FFF7A1FC2248FFF7DCFB67
:100A700001211C48FFF7F4FE68460A21FFF740FFFA
:100A80004FF40030FFF7C4FC4FF40030FFF7B4FC24
:100A90000028F9D001211348FFF7E2FE2221164871
:100AA000FFF7DEFE00211548FFF780FC1348FFF733
:100AB000BBFB68460A21FFF7EBFE4FF40050FFF73F
:100AC000A7FC4FF40050FFF797FC0028F9D0FFF780
:100AD00051FF01210348FFF7C3FEFEE7840D000824
:100AE000AC0D0008C40D0008C80D00080038014016
:100AF000F00D000844000240100E000858000240AB
:100B000008B54FF40050FFF769FC00B908BD4FF479
:100B10000050FFF773FCBDE808404FF40051014856
:100B2000FFF7DEBC001001400649074A074B9A4216
:100B3000BEBF51F8040B42F8040BF8E704488047A5
:100B400004480047480E0008000000207C000020F8
:100B5000E10B0008490100081F49204A002301E079
:100B600041F8043B9142FBD3FFF71EFFFEE7FEE78F
:100B7000FEE7FEE7FEE7FEE7FEE7FEE7FEE7FEE74D
:100B8000FEE7FEE7FEE7FEE7FEE7FEE7FEE7FEE73D
:100B9000FEE7FEE7FEE7FEE7FEE7FEE7FEE7FEE72D
:100BA000FEE7FEE7FEE7FEE7FEE7FEE7FEE7FEE71D
:100BB000FEE7FEE7FEE7FEE7FEE7FEE7FEE7FEE70D
:100BC000FEE7FEE7FEE7FEE7FEE7FEE7FEE7FEE7FD
:100BD000FEE7FEE7FEE7FEE77C000020980000202D
:100BE00030B43C4B3C49186882B040F001001860BA
:100BF0005D6800202940596019684FF41F0421F0F6
:100C0000847121F48031196019681A4621F4802119
:100C10001960596821F4FE0159609C6000900190B0
:100C2000196841F48031196003E0009BB3F5A06FAF
:100C300009D0136803F400330193009B0133009340
:100C4000019B002BF1D0234B1B6813F4003318BF1A
:100C500001230193019B012B06D0204B4FF0006232
:100C60009A6002B030BC70471D4A1A4B1068194692
:100C700040F010001060106820F003001060106851
:100C800040F0020010605A685A605A685A605A6808
:100C900042F480625A605A6822F47C125A605A68A0
:100CA00042F4E8125A601A6842F080721A600B68C7
:100CB000084A9B01FBD51146536823F00303536098
:100CC000536843F0020353604B6803F00C03082B96
:100CD000FAD1C2E7001002400000FFF800ED00E08A
:100CE0000020024008B5074B044613B10021AFF3C2
:100CF0000080054B1868836A03B19847204600F0CE
:100D000033F800BF00000000380E00080E4B70B52D
:100D10001E460E4C0025E41AA410A54204D056F835
:100D2000253098470135F8E700F020F8084B094CCA
:100D30001E46E41AA4100025A54204D056F825301A
:100D400098470135F8E770BD74000020740000205A
:100D5000740000207800002003460244934202D031
:100D600003F8011BFAE77047FEE70000F8B500BF83
:100D7000F8BC08BC9E467047F8B500BFF8BC08BC7C
:100D80009E46704730000000310000003200000035
:100D90003300000034000000350000003600000081
:100DA0003700000038000000390000004461746F13
:100DB00073206465206C61206D656D6F7269613AA6
:100DC000200000000A0000004C6C656E616D6F73BE
:100DD000206C61206D656D6F72696120636F6E209C
:100DE0006461746F73206E7565766F733A200000CE
:100DF0004E7565766F73206461746F73206465202F
:100E00006C61206D656D6F7269613A2000000000B1
:100E10004461746F7320706F72207465636C6164D9
:100E20006F20656E206C61206D656D6F7269613A2F
:100E3000200000004300000014000020000000001B
:080E400008F3FF7F0100000030
:100E48000204060800000000010203040102030472
:100E5800060708090000000000000000000000006C
:100E6800000000000000000000000000000000007A
:100E780000000000340E0008000000000000000020
:100E8800000000000000000000000000000000005A
:100E9800000000000000000000000000000000004A
:100EA800000000000000000000000000000000003A
:0C0EB8000000000011010008ED0000081F
:0400000508000000EF
:00000001FF
