:020000040800F2
:10000000002800200D0A0008530A0008550A0008BD
:10001000570A0008590A00085B0A0008000000009F
:100020000000000000000000000000005D0A000861
:100030005F0A000800000000610A0008630A000867
:10004000670A0008690A00086B0A00086D0A0008C0
:100050006F0A0008710A0008730A0008750A000890
:10006000770A0008790A00087B0A00087D0A000860
:100070007F0A0008810A0008830A0008850A000830
:10008000870A0008890A00088B0A00088D0A000800
:100090008F0A0008910A0008930A0008950A0008D0
:1000A000970A0008990A00089B0A00089D0A0008A0
:1000B0009F0A0008A10A0008A30A0008A50A000870
:1000C000A70A0008A90A0008AB0A0008AD0A000840
:1000D000AF0A0008B10A0008B30A0008B50A000810
:1000E000B70A0008B90A0008BB0A000810B5054C99
:1000F000237833B9044B13B10448AFF300800123D4
:10010000237010BD7C00002000000000200D0008BE
:10011000084B10B51BB108490848AFF300800848E8
:10012000036803B910BD074B002BFBD0BDE810409E
:10013000184700BF0000000080000020200D0008CC
:100140007C00002000000000154B002B08BF134B63
:100150009D46A3F5803A00218B460F461348144A6A
:10016000121A00F06BFD0F4B002B00D098470E4B7E
:10017000002B00D098470020002104000D000D48FE
:10018000002802D00C48AFF3008000F031FD2000C1
:10019000290000F08BFB00F017FD00BF00000800F5
:1001A0000028002000000000000000007C0000206B
:1001B000980000200000000000000000CB782DE92E
:1001C000F04103F00F06DB0648BF8B780C8848BF70
:1001D0001E4314F0FF0F26D00568002301274FF0BF
:1001E0000F0803E00133082B1BD00C8807FA03F239
:1001F00032EA0404F6D19C0091F803E008FA04FC0A
:1002000025EA0C0506FA04F4BEF1280F45EA0405B8
:1002100038D0BEF1480F03F1010308BF0261082B7B
:10022000E3D105600C88FF2C2AD9456800230127FB
:100230004FF00F0C03E00133082B20D00C8803F1A2
:10024000080207FA02F232EA0404F4D191F803E05A
:100250009C00BEF1280F04BF426191F803E00CFA44
:1002600004F8BEF1480F03F1010325EA080506FA78
:1002700004F408BF0261082B45EA0405DED145609D
:10028000BDE8F0814261ADE70161704741617047AF
:10029000014B1860704700BF20000E42034A5368AC
:1002A00023F47C1319430843506070470010024048
:1002B000014B1860704700BF60004242034A536818
:1002C00023F0030318435060704700BF0010024042
:1002D000034A536823F0F00318435060704700BF8F
:1002E00000100240034A536823F4605343EAC000FD
:1002F0005060704700100240064B002201281A701F
:100300001A7005D0042802D105221A707047704770
:100310001870704720100240024A136A1843106296
:10032000704700BF00100240014B1860704700BFCB
:100330003C04424230B4214A536803F00C03042BBE
:1003400006D0082B25D01BB11D4A1346026001E0E0
:100350001B4B0360194A1B4C51681B4DC1F3031121
:10036000615CCB4043605168C1F30221615C23FAB8
:1003700001F181605168C1F3C221615CCB40C3606F
:100380005268C2F38132AA5C30BCB3FBF2F3036162
:10039000704753685168C3F38343C90303F10203F1
:1003A00007D55268920304D4054A02FB03F30360A5
:1003B000D0E7064A02FB03F30360CBE700100240DC
:1003C00000127A00040000200000002000093D0017
:1003D00029B9054A936923EA000090617047024BEE
:1003E0009A691043986170470010024029B9054A84
:1003F000D36923EA0000D0617047024BDA691043E9
:10040000D8617047001002404309012B0BD0022B2A
:10041000094B00F01F000CBF1B6A5B6A23FA00F057
:1004200000F001007047044B00F01F001B6823FA26
:1004300000F000F00100704700100240034A938B67
:10044000108B9BB243EA0040704700BF0028004079
:10045000084A010C938880B29BB243F0100393804A
:1004600011839083938823F010031B041B0C93804B
:10047000704700BF00280040084AC0F3034193883A
:1004800080B29BB243F010039380118190819388D6
:1004900023F010031B041B0C9380704700280040BE
:1004A000084A010C938880B29BB243F010039380FA
:1004B00011849084938823F010031B041B0C9380F9
:1004C000704700BF0028004005490A468B8823F08A
:1004D00008031B041B0C8B8093881B07FCD57047FB
:1004E00000280040034B9B88184214BF01200020C5
:1004F000704700BF00280040034A93889BB223EA5C
:1005000000009080704700BF00280040FFF7F4BF54
:1005100030B504460D46038ACA889BB223F4405383
:100520001343038282890B89888892B249890343E5
:1005300022F4B0520B4322F00C0213439BB2A3816E
:10054000A38AAA899BB223F4407387B01343A38282
:1005500001A8FFF7EFFE04991A48039BA289844281
:1005600008BF0B4612F4004F2A6803EB830314BF45
:100570005200920003EB8303B3FBF2F3124DA18907
:10058000A5FB03206422400900FB12330A044FEA52
:1005900000100AD41A013232A5FB0223C3F343131D
:1005A00003439BB2238107B030BDD9003231A5FB94
:1005B0000131C1F3421242EA00039BB2238107B02A
:1005C00030BD00BF003801401F85EB5100234FF4C0
:1005D00016510C22016042818380C3800381838194
:1005E000704700BF838929B923F400531B041B0CF7
:1005F000838170479BB243F400538381704700BFEF
:10060000C1F30801818070478088C0F308007047FB
:100610000388194214BF01200020704730B5102311
:100620000C4C83B0184602224FF4005501218DF87E
:1006300007308DF80620ADF80450FFF7C9FE2046BC
:1006400001A9FFF7BBFD29462046FFF71DFE03B0B9
:1006500030BD00BF0010014010B5032282B010234E
:100660000224012104208DF806208DF80730ADF812
:100670000440FFF7ADFE01A90248FFF79FFD02B05D
:1006800010BD00BF0008014070B586B002A8FFF79A
:100690009DFF1E4E4FF4E13000230C2202904FF4D8
:1006A0000054012144F20500ADF80C30ADF81030D3
:1006B000ADF81430ADF80E40ADF812200325FFF769
:1006C00087FE134C304601A94FF400721823ADF891
:1006D00004208DF807308DF80650FFF76FFD4FF4BA
:1006E0008062042301A93046ADF804208DF807305C
:1006F0008DF80650FFF762FD20460121FFF772FFDB
:1007000002A92046FFF704FF06B070BD00080140B3
:1007100000380140F0B587B002A8FFF757FF204F1F
:100720000C2200234FF4E1354FF4005401214FF423
:100730000030ADF81220ADF80C30ADF81030ADF847
:1007400014300295ADF80E400425FFF74FFE01214D
:100750000520FFF73DFE032638460DEB0501182363
:10076000104C8DF80730ADF804508DF80660FFF797
:1007700025FD08230DEB05013846ADF804308DF852
:1007800006608DF80750FFF719FD02A92046FFF714
:10079000BFFE20460121FFF725FF07B0F0BD00BFD7
:1007A000000801400044004008B50020FFF786FD26
:1007B0000020FFF77DFD4FF440304FF44011FFF76C
:1007C0006DFD0120FFF774FD3920FFF71DFE0028A5
:1007D000FAD00220FFF772FD0020FFF779FDBDE897
:1007E00008400020FFF77EBD38B504460D46802145
:1007F0000D48FFF70DFF0028F9D00D210A48FFF73B
:10080000FFFE85B1013DADB22544013C8021064883
:10081000FFF7FEFE0028F9D014F8011F0248FFF789
:10082000EFFEAC42F2D138BD0038014091B138B58D
:100830004D1EADB20544441E80210748FFF7E8FE77
:100840000028F9D014F8011F0348FFF7D9FEAC4285
:10085000F2D138BD704700BF0044004008B5012107
:100860004FF08050FFF7C2FD0120FFF711FD01207E
:10087000FFF742FD4120FFF7C7FD0028FAD04FF4F3
:100880008070FFF749FD0120FFF74EFDFFF71CFECA
:100890002020FFF727FE0028FAD047F6FF70FFF769
:1008A000EBFDBDE808400020FFF7D2BDF8B5FFF72B
:1008B0007BFFFFF7E9FEFFF72DFFFFF7AFFEFFF726
:1008C000CDFF0220FFF7ECFD0220FFF71FFE2020E6
:1008D000FFF708FE0028FAD0FFF7B0FD0446FFF747
:1008E000BBFE02213D48FFF7D1FC3D4F00BF013F59
:1008F000FCD102213948FFF7C7FC0D2139483E469B
:10090000FFF772FF20213848FFF782FE01280DD142
:100910003548FFF779FE054680213448FFF778FE19
:100920000028F9D0E9B23148FFF76AFE20212F48AC
:10093000FFF76EFE012819D0FFF780FD001B01288C
:10094000E0D9032EDED1FFF779FD044637B3012F3E
:1009500029D0022F31D0032F2AD0042F18D10F21F4
:100960002348FFF763FF05270026CBE71F48FFF763
:100970004BFEC5B280211C48FFF74AFE0028F9D083
:1009800029461948FFF73CFE3E2D08BF0136D3E744
:10099000052F1DD0062F15D00137E5E70F2115488B
:1009A000FFF744FFF8E725211348FFF73FFFF3E780
:1009B0000F211248FFF73AFFEEE725211048FFF715
:1009C00035FFE9E70F210F483746FFF72FFFCBE749
:1009D0000F210D48FFF72AFF0627C5E70008014051
:1009E000400D0300680C000800380140004400403E
:1009F000E80C0008780C0008880C0008D80C0008E7
:100A0000B00C0008080D0008F80C00080649074A59
:100A1000074B9A42BEBF51F8040B42F8040BF8E7AB
:100A200004488047044800472C0D000800000020BF
:100A30007C000020C50A0008490100081F49204A1F
:100A4000002301E041F8043B9142FBD3FFF72EFF66
:100A5000FEE7FEE7FEE7FEE7FEE7FEE7FEE7FEE76E
:100A6000FEE7FEE7FEE7FEE7FEE7FEE7FEE7FEE75E
:100A7000FEE7FEE7FEE7FEE7FEE7FEE7FEE7FEE74E
:100A8000FEE7FEE7FEE7FEE7FEE7FEE7FEE7FEE73E
:100A9000FEE7FEE7FEE7FEE7FEE7FEE7FEE7FEE72E
:100AA000FEE7FEE7FEE7FEE7FEE7FEE7FEE7FEE71E
:100AB000FEE7FEE7FEE7FEE7FEE7FEE77C0000203C
:100AC0009800002030B43C4B3C49186882B040F09C
:100AD000010018605D6800202940596019684FF4D2
:100AE0001F0421F0847121F48031196019681A46BD
:100AF00021F480211960596821F4FE0159609C603D
:100B000000900190196841F48031196003E0009B66
:100B1000B3F5A06F09D0136803F400330193009B71
:100B200001330093019B002BF1D0234B1B6813F47E
:100B3000003318BF01230193019B012B06D0204BEA
:100B40004FF000629A6002B030BC70471D4A1A4BE9
:100B50001068194640F010001060106820F0030083
:100B60001060106840F0020010605A685A605A68BD
:100B70005A605A6842F480625A605A6822F47C12C1
:100B80005A605A6842F4E8125A601A6842F0807259
:100B90001A600B68084A9B01FBD51146536823F085
:100BA00003035360536843F0020353604B6803F040
:100BB0000C03082BFAD1C2E7001002400000FFF836
:100BC00000ED00E00020024008B5074B044613B1D9
:100BD0000021AFF30080054B1868836A03B1984782
:100BE000204600F033F800BF000000001C0D000894
:100BF0000E4B70B51E460E4C0025E41AA410A542FB
:100C000004D056F8253098470135F8E700F020F871
:100C1000084B094C1E46E41AA4100025A54204D036
:100C200056F8253098470135F8E770BD740000206C
:100C30007400002074000020780000200346024465
:100C4000934202D003F8011BFAE77047FEE7000069
:100C5000F8B500BFF8BC08BC9E467047F8B500BFA9
:100C6000F8BC08BC9E467047496E696369616E6452
:100C70006F2E2E2E0A000000696D706F7274206D49
:100C8000616368696E650D0070696E323D6D616308
:100C900068696E652E50696E28322C6D61636869D3
:100CA0006E652E50696E2E4F5554290D00000000C0
:100CB00070696E303D6D616368696E652E50696E56
:100CC00028302C6D616368696E652E50696E2E4FF9
:100CD0005554290D0000000070696E322E76616C4B
:100CE00075652830290D000070696E302E76616CB4
:100CF00075652830290D000070696E322E76616CA2
:100D000075652831290D000070696E302E76616C92
:100D100075652831290D00004300000014000020F3
:040D200000000000CF
:080D240024F4FF7F0100000030
:100D2C00020406080000000001020304010203048F
:100D3C000607080900000000000000000000000089
:100D4C000000000000000000000000000000000097
:100D5C0000000000180D000800000000000000005A
:100D6C000000000000000000000000000000000077
:100D7C000000000000000000000000000000000067
:100D8C000000000000000000000000000000000057
:0C0D9C000000000011010008ED0000083C
:0400000508000000EF
:00000001FF
